{
  "abi": [
    {
      "inputs": [
        {
          "internalType": "address",
          "name": "_engine",
          "type": "address"
        }
      ],
      "stateMutability": "nonpayable",
      "type": "constructor"
    },
    {
      "anonymous": false,
      "inputs": [
        {
          "indexed": false,
          "internalType": "address",
          "name": "previousAdmin",
          "type": "address"
        },
        {
          "indexed": false,
          "internalType": "address",
          "name": "newAdmin",
          "type": "address"
        }
      ],
      "name": "AdminChanged",
      "type": "event"
    },
    {
      "anonymous": false,
      "inputs": [
        {
          "indexed": true,
          "internalType": "address",
          "name": "owner",
          "type": "address"
        },
        {
          "indexed": true,
          "internalType": "address",
          "name": "spender",
          "type": "address"
        },
        {
          "indexed": true,
          "internalType": "uint256",
          "name": "id",
          "type": "uint256"
        }
      ],
      "name": "Approval",
      "type": "event"
    },
    {
      "anonymous": false,
      "inputs": [
        {
          "indexed": true,
          "internalType": "address",
          "name": "owner",
          "type": "address"
        },
        {
          "indexed": true,
          "internalType": "address",
          "name": "operator",
          "type": "address"
        },
        {
          "indexed": false,
          "internalType": "bool",
          "name": "approved",
          "type": "bool"
        }
      ],
      "name": "ApprovalForAll",
      "type": "event"
    },
    {
      "anonymous": false,
      "inputs": [
        {
          "indexed": true,
          "internalType": "address",
          "name": "beacon",
          "type": "address"
        }
      ],
      "name": "BeaconUpgraded",
      "type": "event"
    },
    {
      "anonymous": false,
      "inputs": [
        {
          "indexed": true,
          "internalType": "address",
          "name": "from",
          "type": "address"
        },
        {
          "indexed": true,
          "internalType": "address",
          "name": "to",
          "type": "address"
        },
        {
          "indexed": true,
          "internalType": "uint256",
          "name": "id",
          "type": "uint256"
        }
      ],
      "name": "Transfer",
      "type": "event"
    },
    {
      "anonymous": false,
      "inputs": [
        {
          "indexed": true,
          "internalType": "address",
          "name": "implementation",
          "type": "address"
        }
      ],
      "name": "Upgraded",
      "type": "event"
    },
    {
      "inputs": [],
      "name": "ENGINE",
      "outputs": [
        {
          "internalType": "address",
          "name": "",
          "type": "address"
        }
      ],
      "stateMutability": "view",
      "type": "function"
    },
    {
      "inputs": [
        {
          "internalType": "address",
          "name": "spender",
          "type": "address"
        },
        {
          "internalType": "uint256",
          "name": "id",
          "type": "uint256"
        }
      ],
      "name": "approve",
      "outputs": [],
      "stateMutability": "nonpayable",
      "type": "function"
    },
    {
      "inputs": [
        {
          "internalType": "address",
          "name": "owner",
          "type": "address"
        }
      ],
      "name": "balanceOf",
      "outputs": [
        {
          "internalType": "uint256",
          "name": "",
          "type": "uint256"
        }
      ],
      "stateMutability": "view",
      "type": "function"
    },
    {
      "inputs": [
        {
          "internalType": "address",
          "name": "to",
          "type": "address"
        },
        {
          "components": [
            {
              "internalType": "string",
              "name": "handle",
              "type": "string"
            },
            {
              "internalType": "string",
              "name": "imageURI",
              "type": "string"
            }
          ],
          "internalType": "struct DataTypes.CreateProfileParams",
          "name": "vars",
          "type": "tuple"
        }
      ],
      "name": "createProfile",
      "outputs": [
        {
          "internalType": "uint256",
          "name": "",
          "type": "uint256"
        }
      ],
      "stateMutability": "nonpayable",
      "type": "function"
    },
    {
      "inputs": [
        {
          "internalType": "uint256",
          "name": "",
          "type": "uint256"
        }
      ],
      "name": "getApproved",
      "outputs": [
        {
          "internalType": "address",
          "name": "",
          "type": "address"
        }
      ],
      "stateMutability": "view",
      "type": "function"
    },
    {
      "inputs": [
        {
          "internalType": "uint256",
          "name": "profileId",
          "type": "uint256"
        }
      ],
      "name": "getHandleByProfileId",
      "outputs": [
        {
          "internalType": "string",
          "name": "",
          "type": "string"
        }
      ],
      "stateMutability": "view",
      "type": "function"
    },
    {
      "inputs": [
        {
          "internalType": "uint256",
          "name": "profileId",
          "type": "uint256"
        }
      ],
      "name": "getMetadata",
      "outputs": [
        {
          "internalType": "string",
          "name": "",
          "type": "string"
        }
      ],
      "stateMutability": "view",
      "type": "function"
    },
    {
      "inputs": [
        {
          "internalType": "uint256",
          "name": "profileId",
          "type": "uint256"
        },
        {
          "internalType": "address",
          "name": "operator",
          "type": "address"
        }
      ],
      "name": "getOperatorApproval",
      "outputs": [
        {
          "internalType": "bool",
          "name": "",
          "type": "bool"
        }
      ],
      "stateMutability": "view",
      "type": "function"
    },
    {
      "inputs": [
        {
          "internalType": "string",
          "name": "handle",
          "type": "string"
        }
      ],
      "name": "getProfileIdByHandle",
      "outputs": [
        {
          "internalType": "uint256",
          "name": "",
          "type": "uint256"
        }
      ],
      "stateMutability": "view",
      "type": "function"
    },
    {
      "inputs": [
        {
          "internalType": "string",
          "name": "_name",
          "type": "string"
        },
        {
          "internalType": "string",
          "name": "_symbol",
          "type": "string"
        }
      ],
      "name": "initialize",
      "outputs": [],
      "stateMutability": "nonpayable",
      "type": "function"
    },
    {
      "inputs": [
        {
          "internalType": "address",
          "name": "",
          "type": "address"
        },
        {
          "internalType": "address",
          "name": "",
          "type": "address"
        }
      ],
      "name": "isApprovedForAll",
      "outputs": [
        {
          "internalType": "bool",
          "name": "",
          "type": "bool"
        }
      ],
      "stateMutability": "view",
      "type": "function"
    },
    {
      "inputs": [],
      "name": "name",
      "outputs": [
        {
          "internalType": "string",
          "name": "",
          "type": "string"
        }
      ],
      "stateMutability": "view",
      "type": "function"
    },
    {
      "inputs": [
        {
          "internalType": "uint256",
          "name": "id",
          "type": "uint256"
        }
      ],
      "name": "ownerOf",
      "outputs": [
        {
          "internalType": "address",
          "name": "owner",
          "type": "address"
        }
      ],
      "stateMutability": "view",
      "type": "function"
    },
    {
      "inputs": [],
      "name": "proxiableUUID",
      "outputs": [
        {
          "internalType": "bytes32",
          "name": "",
          "type": "bytes32"
        }
      ],
      "stateMutability": "view",
      "type": "function"
    },
    {
      "inputs": [
        {
          "internalType": "address",
          "name": "from",
          "type": "address"
        },
        {
          "internalType": "address",
          "name": "to",
          "type": "address"
        },
        {
          "internalType": "uint256",
          "name": "id",
          "type": "uint256"
        }
      ],
      "name": "safeTransferFrom",
      "outputs": [],
      "stateMutability": "nonpayable",
      "type": "function"
    },
    {
      "inputs": [
        {
          "internalType": "address",
          "name": "from",
          "type": "address"
        },
        {
          "internalType": "address",
          "name": "to",
          "type": "address"
        },
        {
          "internalType": "uint256",
          "name": "id",
          "type": "uint256"
        },
        {
          "internalType": "bytes",
          "name": "data",
          "type": "bytes"
        }
      ],
      "name": "safeTransferFrom",
      "outputs": [],
      "stateMutability": "nonpayable",
      "type": "function"
    },
    {
      "inputs": [
        {
          "internalType": "address",
          "name": "operator",
          "type": "address"
        },
        {
          "internalType": "bool",
          "name": "approved",
          "type": "bool"
        }
      ],
      "name": "setApprovalForAll",
      "outputs": [],
      "stateMutability": "nonpayable",
      "type": "function"
    },
    {
      "inputs": [
        {
          "internalType": "uint256",
          "name": "profileId",
          "type": "uint256"
        },
        {
          "internalType": "string",
          "name": "metadata",
          "type": "string"
        }
      ],
      "name": "setMetadata",
      "outputs": [],
      "stateMutability": "nonpayable",
      "type": "function"
    },
    {
      "inputs": [
        {
          "internalType": "uint256",
          "name": "profileId",
          "type": "uint256"
        },
        {
          "internalType": "address",
          "name": "operator",
          "type": "address"
        },
        {
          "internalType": "bool",
          "name": "approved",
          "type": "bool"
        }
      ],
      "name": "setOperatorApproval",
      "outputs": [],
      "stateMutability": "nonpayable",
      "type": "function"
    },
    {
      "inputs": [
        {
          "internalType": "bytes4",
          "name": "interfaceId",
          "type": "bytes4"
        }
      ],
      "name": "supportsInterface",
      "outputs": [
        {
          "internalType": "bool",
          "name": "",
          "type": "bool"
        }
      ],
      "stateMutability": "view",
      "type": "function"
    },
    {
      "inputs": [],
      "name": "symbol",
      "outputs": [
        {
          "internalType": "string",
          "name": "",
          "type": "string"
        }
      ],
      "stateMutability": "view",
      "type": "function"
    },
    {
      "inputs": [
        {
          "internalType": "uint256",
          "name": "tokenId",
          "type": "uint256"
        }
      ],
      "name": "tokenURI",
      "outputs": [
        {
          "internalType": "string",
          "name": "",
          "type": "string"
        }
      ],
      "stateMutability": "view",
      "type": "function"
    },
    {
      "inputs": [],
      "name": "totalSupply",
      "outputs": [
        {
          "internalType": "uint256",
          "name": "",
          "type": "uint256"
        }
      ],
      "stateMutability": "view",
      "type": "function"
    },
    {
      "inputs": [
        {
          "internalType": "address",
          "name": "from",
          "type": "address"
        },
        {
          "internalType": "address",
          "name": "to",
          "type": "address"
        },
        {
          "internalType": "uint256",
          "name": "id",
          "type": "uint256"
        }
      ],
      "name": "transferFrom",
      "outputs": [],
      "stateMutability": "nonpayable",
      "type": "function"
    },
    {
      "inputs": [
        {
          "internalType": "address",
          "name": "newImplementation",
          "type": "address"
        }
      ],
      "name": "upgradeTo",
      "outputs": [],
      "stateMutability": "nonpayable",
      "type": "function"
    },
    {
      "inputs": [
        {
          "internalType": "address",
          "name": "newImplementation",
          "type": "address"
        },
        {
          "internalType": "bytes",
          "name": "data",
          "type": "bytes"
        }
      ],
      "name": "upgradeToAndCall",
      "outputs": [],
      "stateMutability": "payable",
      "type": "function"
    },
    {
      "inputs": [],
      "name": "version",
      "outputs": [
        {
          "internalType": "uint256",
          "name": "",
          "type": "uint256"
        }
      ],
      "stateMutability": "pure",
      "type": "function"
    }
  ],
  "bytecode": {
    "object": "0x60c06040526000600755306080523480156200001a57600080fd5b5060405162002b5738038062002b578339810160408190526200003d91620000aa565b6001600160a01b038116620000985760405162461bcd60e51b815260206004820152601a60248201527f456e67696e6520616464726573732063616e6e6f742062652030000000000000604482015260640160405180910390fd5b6001600160a01b031660a052620000dc565b600060208284031215620000bd57600080fd5b81516001600160a01b0381168114620000d557600080fd5b9392505050565b60805160a051612a1d6200013a6000396000818161033901528181610bf101528181611011015281816111d10152611461015260008181610a1a01528181610a5a01528181610e8d01528181610ecd0152610f600152612a1d6000f3fe60806040526004361061019c5760003560e01c80634f1ef286116100ec578063a22cb4651161008a578063b88d4fde11610064578063b88d4fde146104ac578063c87b56dd146104cc578063e985e9c5146104ec578063f0ab96001461052757600080fd5b8063a22cb4651461044c578063a574cea41461046c578063afa83e681461048c57600080fd5b8063593aa283116100c6578063593aa283146103d75780636352211e146103f757806370a082311461041757806395d89b411461043757600080fd5b80634f1ef2861461039b57806352d1902d146103ae57806354fd4d50146103c357600080fd5b80632307c9871161015957806342842e0e1161013357806342842e0e146103075780634785e8d4146103275780634a398db41461035b5780634cd88b761461037b57600080fd5b80632307c987146102a757806323b872dd146102c75780633659cfe6146102e757600080fd5b806301ffc9a7146101a157806306fdde03146101d6578063081812fc146101f8578063095ea7b31461024657806318160ddd1461026857806320fa728a14610287575b600080fd5b3480156101ad57600080fd5b506101c16101bc366004611f80565b610547565b60405190151581526020015b60405180910390f35b3480156101e257600080fd5b506101eb610599565b6040516101cd9190611fc9565b34801561020457600080fd5b5061022e610213366004611ffc565b6004602052600090815260409020546001600160a01b031681565b6040516001600160a01b0390911681526020016101cd565b34801561025257600080fd5b5061026661026136600461202c565b61062b565b005b34801561027457600080fd5b506007545b6040519081526020016101cd565b34801561029357600080fd5b506102796102a236600461209f565b610712565b3480156102b357600080fd5b506101eb6102c2366004611ffc565b610744565b3480156102d357600080fd5b506102666102e23660046120e1565b610849565b3480156102f357600080fd5b5061026661030236600461211d565b610a10565b34801561031357600080fd5b506102666103223660046120e1565b610aef565b34801561033357600080fd5b5061022e7f000000000000000000000000000000000000000000000000000000000000000081565b34801561036757600080fd5b50610279610376366004612138565b610be4565b34801561038757600080fd5b5061026661039636600461218d565b610dcf565b6102666103a936600461220f565b610e83565b3480156103ba57600080fd5b50610279610f53565b3480156103cf57600080fd5b506001610279565b3480156103e357600080fd5b506102666103f23660046122d1565b611006565b34801561040357600080fd5b5061022e610412366004611ffc565b61106d565b34801561042357600080fd5b5061027961043236600461211d565b6110c4565b34801561044357600080fd5b506101eb611127565b34801561045857600080fd5b5061026661046736600461232d565b611136565b34801561047857600080fd5b506101eb610487366004611ffc565b6111a2565b34801561049857600080fd5b506102666104a7366004612360565b6111c6565b3480156104b857600080fd5b506102666104c736600461239c565b611299565b3480156104d857600080fd5b506101eb6104e7366004611ffc565b611377565b3480156104f857600080fd5b506101c161050736600461240b565b600560209081526000928352604080842090915290825290205460ff1681565b34801561053357600080fd5b506101c1610542366004612435565b61141f565b60006301ffc9a760e01b6001600160e01b03198316148061057857506380ac58cd60e01b6001600160e01b03198316145b806105935750635b5e139f60e01b6001600160e01b03198316145b92915050565b6060600080546105a890612458565b80601f01602080910402602001604051908101604052809291908181526020018280546105d490612458565b80156106215780601f106105f657610100808354040283529160200191610621565b820191906000526020600020905b81548152906001019060200180831161060457829003601f168201915b5050505050905090565b6000818152600260205260409020546001600160a01b03163381148061067457506001600160a01b038116600090815260056020908152604080832033845290915290205460ff165b6106b65760405162461bcd60e51b815260206004820152600e60248201526d1393d517d055551213d49256915160921b60448201526064015b60405180910390fd5b60008281526004602052604080822080546001600160a01b0319166001600160a01b0387811691821790925591518593918516917f8c5be1e5ebec7d5bd14f71427d1e84f3dd0314c0f7b2291e5b200ac8c7c3b92591a4505050565b6000808383604051610725929190612492565b6040805191829003909120600090815260096020522054949350505050565b6000818152600260205260409020546060906001600160a01b03166107ab5760405162461bcd60e51b815260206004820152601860248201527f4552433732313a20696e76616c696420746f6b656e204944000000000000000060448201526064016106ad565b600082815260086020526040902080546107c490612458565b80601f01602080910402602001604051908101604052809291908181526020018280546107f090612458565b801561083d5780601f106108125761010080835404028352916020019161083d565b820191906000526020600020905b81548152906001019060200180831161082057829003601f168201915b50505050509050919050565b6000818152600260205260409020546001600160a01b0384811691161461089f5760405162461bcd60e51b815260206004820152600a60248201526957524f4e475f46524f4d60b01b60448201526064016106ad565b6001600160a01b0382166108e95760405162461bcd60e51b81526020600482015260116024820152701253959053125117d49150d25412515395607a1b60448201526064016106ad565b336001600160a01b038416148061092357506001600160a01b038316600090815260056020908152604080832033845290915290205460ff165b8061094457506000818152600460205260409020546001600160a01b031633145b6109815760405162461bcd60e51b815260206004820152600e60248201526d1393d517d055551213d49256915160921b60448201526064016106ad565b6001600160a01b0380841660008181526003602090815260408083208054600019019055938616808352848320805460010190558583526002825284832080546001600160a01b03199081168317909155600490925284832080549092169091559251849392917fddf252ad1be2c89b69c2b068fc378daa952ba7f163c4a11628f55a4df523b3ef91a4505050565b6001600160a01b037f0000000000000000000000000000000000000000000000000000000000000000163003610a585760405162461bcd60e51b81526004016106ad906124a2565b7f00000000000000000000000000000000000000000000000000000000000000006001600160a01b0316610aa1600080516020612961833981519152546001600160a01b031690565b6001600160a01b031614610ac75760405162461bcd60e51b81526004016106ad906124ee565b610ad081611456565b60408051600080825260208201909252610aec9183919061149e565b50565b610afa838383610849565b6001600160a01b0382163b15610bdf57604051630a85bd0160e11b8082523360048301526001600160a01b03858116602484015260448301849052608060648401526000608484015290919084169063150b7a029060a4016020604051808303816000875af1158015610b71573d6000803e3d6000fd5b505050506040513d601f19601f82011682018060405250810190610b95919061253a565b6001600160e01b03191614610bdf5760405162461bcd60e51b815260206004820152601060248201526f155394d0519157d49150d2541251539560821b60448201526064016106ad565b505050565b6000336001600160a01b037f00000000000000000000000000000000000000000000000000000000000000001614610c2e5760405162461bcd60e51b81526004016106ad90612557565b610c40610c3b838061257c565b611609565b6000610c4c838061257c565b604051610c5a929190612492565b60405180910390209050610c9860096000838152602001908152602001600020546000908152600260205260409020546001600160a01b0316151590565b15610cd45760405162461bcd60e51b815260206004820152600c60248201526b2430b7323632903a30b5b2b760a11b60448201526064016106ad565b610cdd846117a0565b6040805180820190915280610cf2858061257c565b8080601f016020809104026020016040519081016040528093929190818152602001838380828437600092019190915250505090825250602090810190610d3b9086018661257c565b8080601f0160208091040260200160405190810160405280939291908181526020018383808284376000920182905250939094525050600754815260086020908152604090912083518051919350610d97928492910190611e5d565b506020828101518051610db09260018501920190611e5d565b5050600754600092835260096020526040909220829055509392505050565b600654610100900460ff1615808015610def5750600654600160ff909116105b610e3b5760405162461bcd60e51b815260206004820152601c60248201527f436f6e747261637420616c726561647920696e697469616c697a65640000000060448201526064016106ad565b6006805460ff191660011790558015610e5e576006805461ff0019166101001790555b610e6a858585856117bd565b8015610e7c576006805461ff00191690555b5050505050565b6001600160a01b037f0000000000000000000000000000000000000000000000000000000000000000163003610ecb5760405162461bcd60e51b81526004016106ad906124a2565b7f00000000000000000000000000000000000000000000000000000000000000006001600160a01b0316610f14600080516020612961833981519152546001600160a01b031690565b6001600160a01b031614610f3a5760405162461bcd60e51b81526004016106ad906124ee565b610f4382611456565b610f4f8282600161149e565b5050565b6000306001600160a01b037f00000000000000000000000000000000000000000000000000000000000000001614610ff35760405162461bcd60e51b815260206004820152603860248201527f555550535570677261646561626c653a206d757374206e6f742062652063616c60448201527f6c6564207468726f7567682064656c656761746563616c6c000000000000000060648201526084016106ad565b5060008051602061296183398151915290565b336001600160a01b037f0000000000000000000000000000000000000000000000000000000000000000161461104e5760405162461bcd60e51b81526004016106ad90612557565b6000838152600a60205260409020611067908383611ee1565b50505050565b6000818152600260205260409020546001600160a01b0316806110bf5760405162461bcd60e51b815260206004820152600a6024820152691393d517d3525395115160b21b60448201526064016106ad565b919050565b60006001600160a01b03821661110b5760405162461bcd60e51b815260206004820152600c60248201526b5a45524f5f4144445245535360a01b60448201526064016106ad565b506001600160a01b031660009081526003602052604090205490565b6060600180546105a890612458565b3360008181526005602090815260408083206001600160a01b03871680855290835292819020805460ff191686151590811790915590519081529192917f17307eab39ab6107e8899845ad3d59bd9653f200f220920489ca2b5937696c31910160405180910390a35050565b60606111ad82611834565b6000828152600a6020526040902080546107c490612458565b336001600160a01b037f0000000000000000000000000000000000000000000000000000000000000000161461120e5760405162461bcd60e51b81526004016106ad90612557565b6001600160a01b0382166112645760405162461bcd60e51b815260206004820152601c60248201527f4f70657261746f7220616464726573732063616e6e6f7420626520300000000060448201526064016106ad565b6000928352600b602090815260408085206001600160a01b039490941685529290529120805460ff1916911515919091179055565b6112a4858585610849565b6001600160a01b0384163b15610e7c57604051630a85bd0160e11b808252906001600160a01b0386169063150b7a02906112ea9033908a908990899089906004016125c3565b6020604051808303816000875af1158015611309573d6000803e3d6000fd5b505050506040513d601f19601f8201168201806040525081019061132d919061253a565b6001600160e01b03191614610e7c5760405162461bcd60e51b815260206004820152601060248201526f155394d0519157d49150d2541251539560821b60448201526064016106ad565b606061138282611834565b6000828152600860209081526040808320905161139f9201612617565b60405160208183030381529060405290506113f881826113be86611885565b6113cf6113ca8861106d565b6118d4565b856040516020016113e49594939291906126de565b6040516020818303038152906040526119a3565b6040516020016114089190612848565b604051602081830303815290604052915050919050565b600061142a83611834565b506000918252600b602090815260408084206001600160a01b0393909316845291905290205460ff1690565b336001600160a01b037f00000000000000000000000000000000000000000000000000000000000000001614610aec5760405162461bcd60e51b81526004016106ad90612557565b7f4910fdfa16fed3260ed0e7147f7cc6da11a60208b5b9406d12a635614ffd91435460ff16156114d157610bdf83611af6565b826001600160a01b03166352d1902d6040518163ffffffff1660e01b8152600401602060405180830381865afa92505050801561152b575060408051601f3d908101601f191682019092526115289181019061288d565b60015b61158e5760405162461bcd60e51b815260206004820152602e60248201527f45524331393637557067726164653a206e657720696d706c656d656e7461746960448201526d6f6e206973206e6f74205555505360901b60648201526084016106ad565b60008051602061296183398151915281146115fd5760405162461bcd60e51b815260206004820152602960248201527f45524331393637557067726164653a20756e737570706f727465642070726f786044820152681a58589b195555525160ba1b60648201526084016106ad565b50610bdf838383611b92565b600082828080601f0160208091040260200160405190810160405280939291908181526020018383808284376000920191909152505082519293505050601b10801590611657575060008151115b6116a35760405162461bcd60e51b815260206004820152601960248201527f48616e646c652068617320696e76616c6964206c656e6774680000000000000060448201526064016106ad565b805160005b81811015610e7c5760008382815181106116c4576116c46128a6565b01602001516001600160f81b0319169050600360fc1b81108015906116f75750603960f81b6001600160f81b0319821611155b806117295750606160f81b6001600160f81b03198216108015906117295750603d60f91b6001600160f81b0319821611155b806117415750605f60f81b6001600160f81b03198216145b6117975760405162461bcd60e51b815260206004820152602160248201527f48616e646c6520636f6e7461696e7320696e76616c69642063686172616374656044820152603960f91b60648201526084016106ad565b506001016116a8565b610aec816007600081546117b3906128d2565b9182905550611bb7565b600654610100900460ff166118285760405162461bcd60e51b815260206004820152602b60248201527f496e697469616c697a61626c653a20636f6e7472616374206973206e6f74206960448201526a6e697469616c697a696e6760a81b60648201526084016106ad565b61106784848484611cc2565b6000818152600260205260409020546001600160a01b0316610aec5760405162461bcd60e51b815260206004820152600a6024820152691393d517d3525395115160b21b60448201526064016106ad565b604080516080810191829052607f0190826030600a8206018353600a90045b80156118c257600183039250600a81066030018353600a90046118a4565b50819003601f19909101908152919050565b6040805160608101909152605e81019060149083906f181899199a1a9b1b9c1cb0b131b232b360811b600f83161a90605f01536f181899199a1a9b1b9c1cb0b131b232b360811b600f8260041c161a83536000199091019060081c5b8115611988576001198301926f181899199a1a9b1b9c1cb0b131b232b360811b600f83161a9060001901536f181899199a1a9b1b9c1cb0b131b232b360811b600f8260041c161a83536000199091019060081c611930565b5050613078601f19820152602a602119909101908152919050565b606081516000036119c257505060408051602081019091526000815290565b600060405180606001604052806040815260200161298160409139905060006003845160026119f191906128eb565b6119fb9190612903565b611a06906004612925565b67ffffffffffffffff811115611a1e57611a1e6121f9565b6040519080825280601f01601f191660200182016040528015611a48576020820181803683370190505b509050600182016020820185865187015b80821015611ab4576003820191508151603f8160121c168501518453600184019350603f81600c1c168501518453600184019350603f8160061c168501518453600184019350603f8116850151845350600183019250611a59565b5050600386510660018114611ad05760028114611ae357611aeb565b603d6001830353603d6002830353611aeb565b603d60018303535b509195945050505050565b6001600160a01b0381163b611b635760405162461bcd60e51b815260206004820152602d60248201527f455243313936373a206e657720696d706c656d656e746174696f6e206973206e60448201526c1bdd08184818dbdb9d1c9858dd609a1b60648201526084016106ad565b60008051602061296183398151915280546001600160a01b0319166001600160a01b0392909216919091179055565b611b9b83611cdb565b600082511180611ba85750805b15610bdf576110678383611d1b565b6001600160a01b038216611c015760405162461bcd60e51b81526020600482015260116024820152701253959053125117d49150d25412515395607a1b60448201526064016106ad565b6000818152600260205260409020546001600160a01b031615611c575760405162461bcd60e51b815260206004820152600e60248201526d1053149150511657d3525395115160921b60448201526064016106ad565b6001600160a01b038216600081815260036020908152604080832080546001019055848352600290915280822080546001600160a01b0319168417905551839291907fddf252ad1be2c89b69c2b068fc378daa952ba7f163c4a11628f55a4df523b3ef908290a45050565b611cce60008585611ee1565b50610e7c60018383611ee1565b611ce481611af6565b6040516001600160a01b038216907fbc7cd75a20ee27fd9adebab32041f755214dbc6bffa90cc0225b39da2e5c2d3b90600090a250565b6060611d4083836040518060600160405280602781526020016129c160279139611d47565b9392505050565b60606001600160a01b0384163b611daf5760405162461bcd60e51b815260206004820152602660248201527f416464726573733a2064656c65676174652063616c6c20746f206e6f6e2d636f6044820152651b9d1c9858dd60d21b60648201526084016106ad565b600080856001600160a01b031685604051611dca9190612944565b600060405180830381855af49150503d8060008114611e05576040519150601f19603f3d011682016040523d82523d6000602084013e611e0a565b606091505b5091509150611e1a828286611e24565b9695505050505050565b60608315611e33575081611d40565b825115611e435782518084602001fd5b8160405162461bcd60e51b81526004016106ad9190611fc9565b828054611e6990612458565b90600052602060002090601f016020900481019282611e8b5760008555611ed1565b82601f10611ea457805160ff1916838001178555611ed1565b82800160010185558215611ed1579182015b82811115611ed1578251825591602001919060010190611eb6565b50611edd929150611f55565b5090565b828054611eed90612458565b90600052602060002090601f016020900481019282611f0f5760008555611ed1565b82601f10611f285782800160ff19823516178555611ed1565b82800160010185558215611ed1579182015b82811115611ed1578235825591602001919060010190611f3a565b5b80821115611edd5760008155600101611f56565b6001600160e01b031981168114610aec57600080fd5b600060208284031215611f9257600080fd5b8135611d4081611f6a565b60005b83811015611fb8578181015183820152602001611fa0565b838111156110675750506000910152565b6020815260008251806020840152611fe8816040850160208701611f9d565b601f01601f19169190910160400192915050565b60006020828403121561200e57600080fd5b5035919050565b80356001600160a01b03811681146110bf57600080fd5b6000806040838503121561203f57600080fd5b61204883612015565b946020939093013593505050565b60008083601f84011261206857600080fd5b50813567ffffffffffffffff81111561208057600080fd5b60208301915083602082850101111561209857600080fd5b9250929050565b600080602083850312156120b257600080fd5b823567ffffffffffffffff8111156120c957600080fd5b6120d585828601612056565b90969095509350505050565b6000806000606084860312156120f657600080fd5b6120ff84612015565b925061210d60208501612015565b9150604084013590509250925092565b60006020828403121561212f57600080fd5b611d4082612015565b6000806040838503121561214b57600080fd5b61215483612015565b9150602083013567ffffffffffffffff81111561217057600080fd5b83016040818603121561218257600080fd5b809150509250929050565b600080600080604085870312156121a357600080fd5b843567ffffffffffffffff808211156121bb57600080fd5b6121c788838901612056565b909650945060208701359150808211156121e057600080fd5b506121ed87828801612056565b95989497509550505050565b634e487b7160e01b600052604160045260246000fd5b6000806040838503121561222257600080fd5b61222b83612015565b9150602083013567ffffffffffffffff8082111561224857600080fd5b818501915085601f83011261225c57600080fd5b81358181111561226e5761226e6121f9565b604051601f8201601f19908116603f01168101908382118183101715612296576122966121f9565b816040528281528860208487010111156122af57600080fd5b8260208601602083013760006020848301015280955050505050509250929050565b6000806000604084860312156122e657600080fd5b83359250602084013567ffffffffffffffff81111561230457600080fd5b61231086828701612056565b9497909650939450505050565b803580151581146110bf57600080fd5b6000806040838503121561234057600080fd5b61234983612015565b91506123576020840161231d565b90509250929050565b60008060006060848603121561237557600080fd5b8335925061238560208501612015565b91506123936040850161231d565b90509250925092565b6000806000806000608086880312156123b457600080fd5b6123bd86612015565b94506123cb60208701612015565b935060408601359250606086013567ffffffffffffffff8111156123ee57600080fd5b6123fa88828901612056565b969995985093965092949392505050565b6000806040838503121561241e57600080fd5b61242783612015565b915061235760208401612015565b6000806040838503121561244857600080fd5b8235915061235760208401612015565b600181811c9082168061246c57607f821691505b60208210810361248c57634e487b7160e01b600052602260045260246000fd5b50919050565b8183823760009101908152919050565b6020808252602c908201527f46756e6374696f6e206d7573742062652063616c6c6564207468726f7567682060408201526b19195b1959d85d1958d85b1b60a21b606082015260800190565b6020808252602c908201527f46756e6374696f6e206d7573742062652063616c6c6564207468726f7567682060408201526b6163746976652070726f787960a01b606082015260800190565b60006020828403121561254c57600080fd5b8151611d4081611f6a565b6020808252600b908201526a4f6e6c7920456e67696e6560a81b604082015260600190565b6000808335601e1984360301811261259357600080fd5b83018035915067ffffffffffffffff8211156125ae57600080fd5b60200191503681900382131561209857600080fd5b6001600160a01b038681168252851660208201526040810184905260806060820181905281018290526000828460a0840137600060a0848401015260a0601f19601f85011683010190509695505050505050565b600160fe1b815260006001600084548181841c90508382168061263b57607f821691505b6020808310820361265a57634e487b7160e01b85526022600452602485fd5b81801561266e5760018114612683576126b4565b60ff19851689880152838901870195506126b4565b60008a81526020902060005b858110156126aa5781548b82018a015290880190830161268f565b505086848a010195505b509398975050505050505050565b600081516126d4818560208601611f9d565b9290920192915050565b683d913730b6b2911d1160b91b81528551600090612703816009850160208b01611f9d565b701116113232b9b1b934b83a34b7b7111d1160791b600991840191820152865161273481601a840160208b01611f9d565b7f202d204379626572436f6e6e6563742070726f66696c65222c22617474726962601a92909101918201527f75746573223a5b7b2274726169745f74797065223a226964222c2276616c7565603a82015263223a222360e01b605a82015285516127a581605e840160208a01611f9d565b7f227d2c7b2274726169745f74797065223a226f776e6572222c2276616c756522605e9290910191820152611d1160f11b607e82015261283c61282c6128266127f160808501896126c2565b7f227d2c7b2274726169745f74797065223a2268616e646c65222c2276616c7565815262111d1160e91b602082015260230190565b866126c2565b63227d5d7d60e01b815260040190565b98975050505050505050565b7f646174613a6170706c69636174696f6e2f6a736f6e3b6261736536342c00000081526000825161288081601d850160208701611f9d565b91909101601d0192915050565b60006020828403121561289f57600080fd5b5051919050565b634e487b7160e01b600052603260045260246000fd5b634e487b7160e01b600052601160045260246000fd5b6000600182016128e4576128e46128bc565b5060010190565b600082198211156128fe576128fe6128bc565b500190565b60008261292057634e487b7160e01b600052601260045260246000fd5b500490565b600081600019048311821515161561293f5761293f6128bc565b500290565b60008251612956818460208701611f9d565b919091019291505056fe360894a13ba1a3210667c828492db98dca3e2076cc3735a920a3ca505d382bbc4142434445464748494a4b4c4d4e4f505152535455565758595a6162636465666768696a6b6c6d6e6f707172737475767778797a303132333435363738392b2f416464726573733a206c6f772d6c6576656c2064656c65676174652063616c6c206661696c6564a264697066735822122026cc1ca389b4bad96325fec25c7a20580d2a0bd970e6e239f45a2492c89eafca64736f6c634300080e0033",
    "linkReferences": {}
  },
  "methodIdentifiers": {
    "ENGINE()": "4785e8d4",
    "approve(address,uint256)": "095ea7b3",
    "balanceOf(address)": "70a08231",
    "createProfile(address,(string,string))": "4a398db4",
    "getApproved(uint256)": "081812fc",
    "getHandleByProfileId(uint256)": "2307c987",
    "getMetadata(uint256)": "a574cea4",
    "getOperatorApproval(uint256,address)": "f0ab9600",
    "getProfileIdByHandle(string)": "20fa728a",
    "initialize(string,string)": "4cd88b76",
    "isApprovedForAll(address,address)": "e985e9c5",
    "name()": "06fdde03",
    "ownerOf(uint256)": "6352211e",
    "proxiableUUID()": "52d1902d",
    "safeTransferFrom(address,address,uint256)": "42842e0e",
    "safeTransferFrom(address,address,uint256,bytes)": "b88d4fde",
    "setApprovalForAll(address,bool)": "a22cb465",
    "setMetadata(uint256,string)": "593aa283",
    "setOperatorApproval(uint256,address,bool)": "afa83e68",
    "supportsInterface(bytes4)": "01ffc9a7",
    "symbol()": "95d89b41",
    "tokenURI(uint256)": "c87b56dd",
    "totalSupply()": "18160ddd",
    "transferFrom(address,address,uint256)": "23b872dd",
    "upgradeTo(address)": "3659cfe6",
    "upgradeToAndCall(address,bytes)": "4f1ef286",
    "version()": "54fd4d50"
  },
  "id": 19
}