{
  "abi": [
    {
      "anonymous": false,
      "inputs": [
        {
          "indexed": false,
          "internalType": "address",
          "name": "previousAdmin",
          "type": "address"
        },
        {
          "indexed": false,
          "internalType": "address",
          "name": "newAdmin",
          "type": "address"
        }
      ],
      "name": "AdminChanged",
      "type": "event"
    },
    {
      "anonymous": false,
      "inputs": [
        {
          "indexed": true,
          "internalType": "address",
          "name": "mw",
          "type": "address"
        },
        {
          "indexed": true,
          "internalType": "bool",
          "name": "preAllowed",
          "type": "bool"
        },
        {
          "indexed": true,
          "internalType": "bool",
          "name": "newAllowed",
          "type": "bool"
        }
      ],
      "name": "AllowSubscribeMw",
      "type": "event"
    },
    {
      "anonymous": false,
      "inputs": [
        {
          "indexed": true,
          "internalType": "address",
          "name": "user",
          "type": "address"
        },
        {
          "indexed": true,
          "internalType": "contract Authority",
          "name": "newAuthority",
          "type": "address"
        }
      ],
      "name": "AuthorityUpdated",
      "type": "event"
    },
    {
      "anonymous": false,
      "inputs": [
        {
          "indexed": true,
          "internalType": "address",
          "name": "beacon",
          "type": "address"
        }
      ],
      "name": "BeaconUpgraded",
      "type": "event"
    },
    {
      "anonymous": false,
      "inputs": [
        {
          "indexed": true,
          "internalType": "address",
          "name": "owner",
          "type": "address"
        },
        {
          "indexed": false,
          "internalType": "address",
          "name": "profileAddress",
          "type": "address"
        },
        {
          "indexed": false,
          "internalType": "address",
          "name": "boxAddress",
          "type": "address"
        },
        {
          "indexed": false,
          "internalType": "address",
          "name": "subscribeNFTBeacon",
          "type": "address"
        }
      ],
      "name": "Initialize",
      "type": "event"
    },
    {
      "anonymous": false,
      "inputs": [
        {
          "indexed": true,
          "internalType": "address",
          "name": "user",
          "type": "address"
        },
        {
          "indexed": true,
          "internalType": "address",
          "name": "newOwner",
          "type": "address"
        }
      ],
      "name": "OwnerUpdated",
      "type": "event"
    },
    {
      "anonymous": false,
      "inputs": [
        {
          "indexed": true,
          "internalType": "address",
          "name": "to",
          "type": "address"
        },
        {
          "indexed": true,
          "internalType": "string",
          "name": "handle",
          "type": "string"
        }
      ],
      "name": "Register",
      "type": "event"
    },
    {
      "anonymous": false,
      "inputs": [
        {
          "indexed": true,
          "internalType": "address",
          "name": "preBoxAddr",
          "type": "address"
        },
        {
          "indexed": true,
          "internalType": "address",
          "name": "newBoxAddress",
          "type": "address"
        }
      ],
      "name": "SetBoxAddress",
      "type": "event"
    },
    {
      "anonymous": false,
      "inputs": [
        {
          "indexed": true,
          "internalType": "bool",
          "name": "preEnded",
          "type": "bool"
        },
        {
          "indexed": true,
          "internalType": "bool",
          "name": "newEnded",
          "type": "bool"
        }
      ],
      "name": "SetBoxGiveawayEnded",
      "type": "event"
    },
    {
      "anonymous": false,
      "inputs": [
        {
          "indexed": true,
          "internalType": "enum DataTypes.Tier",
          "name": "tier",
          "type": "uint8"
        },
        {
          "indexed": true,
          "internalType": "uint256",
          "name": "preAmount",
          "type": "uint256"
        },
        {
          "indexed": true,
          "internalType": "uint256",
          "name": "newAmount",
          "type": "uint256"
        }
      ],
      "name": "SetFeeByTier",
      "type": "event"
    },
    {
      "anonymous": false,
      "inputs": [
        {
          "indexed": true,
          "internalType": "address",
          "name": "preProfileAddr",
          "type": "address"
        },
        {
          "indexed": true,
          "internalType": "address",
          "name": "newProfileAddr",
          "type": "address"
        }
      ],
      "name": "SetProfileAddress",
      "type": "event"
    },
    {
      "anonymous": false,
      "inputs": [
        {
          "indexed": true,
          "internalType": "address",
          "name": "preSigner",
          "type": "address"
        },
        {
          "indexed": true,
          "internalType": "address",
          "name": "newSigner",
          "type": "address"
        }
      ],
      "name": "SetSigner",
      "type": "event"
    },
    {
      "anonymous": false,
      "inputs": [
        {
          "indexed": true,
          "internalType": "enum DataTypes.State",
          "name": "preState",
          "type": "uint8"
        },
        {
          "indexed": true,
          "internalType": "enum DataTypes.State",
          "name": "newState",
          "type": "uint8"
        }
      ],
      "name": "SetState",
      "type": "event"
    },
    {
      "anonymous": false,
      "inputs": [
        {
          "indexed": true,
          "internalType": "uint256",
          "name": "profileId",
          "type": "uint256"
        },
        {
          "indexed": false,
          "internalType": "address",
          "name": "preMw",
          "type": "address"
        },
        {
          "indexed": false,
          "internalType": "address",
          "name": "newMw",
          "type": "address"
        }
      ],
      "name": "SetSubscribeMw",
      "type": "event"
    },
    {
      "anonymous": false,
      "inputs": [
        {
          "indexed": true,
          "internalType": "address",
          "name": "sender",
          "type": "address"
        },
        {
          "indexed": false,
          "internalType": "uint256[]",
          "name": "profileIds",
          "type": "uint256[]"
        },
        {
          "indexed": false,
          "internalType": "bytes[]",
          "name": "subDatas",
          "type": "bytes[]"
        }
      ],
      "name": "Subscribe",
      "type": "event"
    },
    {
      "anonymous": false,
      "inputs": [
        {
          "indexed": true,
          "internalType": "address",
          "name": "implementation",
          "type": "address"
        }
      ],
      "name": "Upgraded",
      "type": "event"
    },
    {
      "anonymous": false,
      "inputs": [
        {
          "indexed": true,
          "internalType": "address",
          "name": "to",
          "type": "address"
        },
        {
          "indexed": true,
          "internalType": "uint256",
          "name": "amount",
          "type": "uint256"
        }
      ],
      "name": "Withdraw",
      "type": "event"
    },
    {
      "inputs": [
        {
          "internalType": "address",
          "name": "mw",
          "type": "address"
        },
        {
          "internalType": "bool",
          "name": "allowed",
          "type": "bool"
        }
      ],
      "name": "allowSubscribeMw",
      "outputs": [],
      "stateMutability": "nonpayable",
      "type": "function"
    },
    {
      "inputs": [],
      "name": "authority",
      "outputs": [
        {
          "internalType": "contract Authority",
          "name": "",
          "type": "address"
        }
      ],
      "stateMutability": "view",
      "type": "function"
    },
    {
      "inputs": [],
      "name": "boxAddress",
      "outputs": [
        {
          "internalType": "address",
          "name": "",
          "type": "address"
        }
      ],
      "stateMutability": "view",
      "type": "function"
    },
    {
      "inputs": [],
      "name": "boxGiveawayEnded",
      "outputs": [
        {
          "internalType": "bool",
          "name": "",
          "type": "bool"
        }
      ],
      "stateMutability": "view",
      "type": "function"
    },
    {
      "inputs": [
        {
          "internalType": "enum DataTypes.Tier",
          "name": "",
          "type": "uint8"
        }
      ],
      "name": "feeMapping",
      "outputs": [
        {
          "internalType": "uint256",
          "name": "",
          "type": "uint256"
        }
      ],
      "stateMutability": "view",
      "type": "function"
    },
    {
      "inputs": [],
      "name": "getState",
      "outputs": [
        {
          "internalType": "enum DataTypes.State",
          "name": "",
          "type": "uint8"
        }
      ],
      "stateMutability": "view",
      "type": "function"
    },
    {
      "inputs": [
        {
          "internalType": "uint256",
          "name": "profileId",
          "type": "uint256"
        }
      ],
      "name": "getSubscribeMw",
      "outputs": [
        {
          "internalType": "address",
          "name": "",
          "type": "address"
        }
      ],
      "stateMutability": "view",
      "type": "function"
    },
    {
      "inputs": [
        {
          "internalType": "uint256",
          "name": "profileId",
          "type": "uint256"
        }
      ],
      "name": "getSubscribeNFT",
      "outputs": [
        {
          "internalType": "address",
          "name": "",
          "type": "address"
        }
      ],
      "stateMutability": "view",
      "type": "function"
    },
    {
      "inputs": [
        {
          "internalType": "uint256",
          "name": "profileId",
          "type": "uint256"
        }
      ],
      "name": "getSubscribeNFTTokenURI",
      "outputs": [
        {
          "internalType": "string",
          "name": "",
          "type": "string"
        }
      ],
      "stateMutability": "view",
      "type": "function"
    },
    {
      "inputs": [
        {
          "internalType": "address",
          "name": "_owner",
          "type": "address"
        },
        {
          "internalType": "address",
          "name": "_profileAddress",
          "type": "address"
        },
        {
          "internalType": "address",
          "name": "_boxAddress",
          "type": "address"
        },
        {
          "internalType": "address",
          "name": "_subscribeNFTBeacon",
          "type": "address"
        },
        {
          "internalType": "contract RolesAuthority",
          "name": "_rolesAuthority",
          "type": "address"
        }
      ],
      "name": "initialize",
      "outputs": [],
      "stateMutability": "nonpayable",
      "type": "function"
    },
    {
      "inputs": [
        {
          "internalType": "address",
          "name": "mw",
          "type": "address"
        }
      ],
      "name": "isSubscribeMwAllowed",
      "outputs": [
        {
          "internalType": "bool",
          "name": "",
          "type": "bool"
        }
      ],
      "stateMutability": "view",
      "type": "function"
    },
    {
      "inputs": [
        {
          "internalType": "address",
          "name": "",
          "type": "address"
        }
      ],
      "name": "nonces",
      "outputs": [
        {
          "internalType": "uint256",
          "name": "",
          "type": "uint256"
        }
      ],
      "stateMutability": "view",
      "type": "function"
    },
    {
      "inputs": [],
      "name": "owner",
      "outputs": [
        {
          "internalType": "address",
          "name": "",
          "type": "address"
        }
      ],
      "stateMutability": "view",
      "type": "function"
    },
    {
      "inputs": [],
      "name": "profileAddress",
      "outputs": [
        {
          "internalType": "address",
          "name": "",
          "type": "address"
        }
      ],
      "stateMutability": "view",
      "type": "function"
    },
    {
      "inputs": [],
      "name": "proxiableUUID",
      "outputs": [
        {
          "internalType": "bytes32",
          "name": "",
          "type": "bytes32"
        }
      ],
      "stateMutability": "view",
      "type": "function"
    },
    {
      "inputs": [
        {
          "internalType": "address",
          "name": "to",
          "type": "address"
        },
        {
          "internalType": "string",
          "name": "handle",
          "type": "string"
        },
        {
          "components": [
            {
              "internalType": "uint8",
              "name": "v",
              "type": "uint8"
            },
            {
              "internalType": "bytes32",
              "name": "r",
              "type": "bytes32"
            },
            {
              "internalType": "bytes32",
              "name": "s",
              "type": "bytes32"
            },
            {
              "internalType": "uint256",
              "name": "deadline",
              "type": "uint256"
            }
          ],
          "internalType": "struct DataTypes.EIP712Signature",
          "name": "sig",
          "type": "tuple"
        }
      ],
      "name": "register",
      "outputs": [
        {
          "internalType": "uint256",
          "name": "",
          "type": "uint256"
        }
      ],
      "stateMutability": "payable",
      "type": "function"
    },
    {
      "inputs": [
        {
          "internalType": "contract Authority",
          "name": "newAuthority",
          "type": "address"
        }
      ],
      "name": "setAuthority",
      "outputs": [],
      "stateMutability": "nonpayable",
      "type": "function"
    },
    {
      "inputs": [
        {
          "internalType": "address",
          "name": "_boxAddress",
          "type": "address"
        }
      ],
      "name": "setBoxAddress",
      "outputs": [],
      "stateMutability": "nonpayable",
      "type": "function"
    },
    {
      "inputs": [
        {
          "internalType": "bool",
          "name": "ended",
          "type": "bool"
        }
      ],
      "name": "setBoxGiveawayEnded",
      "outputs": [],
      "stateMutability": "nonpayable",
      "type": "function"
    },
    {
      "inputs": [
        {
          "internalType": "enum DataTypes.Tier",
          "name": "tier",
          "type": "uint8"
        },
        {
          "internalType": "uint256",
          "name": "amount",
          "type": "uint256"
        }
      ],
      "name": "setFeeByTier",
      "outputs": [],
      "stateMutability": "nonpayable",
      "type": "function"
    },
    {
      "inputs": [
        {
          "internalType": "uint256",
          "name": "profileId",
          "type": "uint256"
        },
        {
          "internalType": "string",
          "name": "metadata",
          "type": "string"
        }
      ],
      "name": "setMetadata",
      "outputs": [],
      "stateMutability": "nonpayable",
      "type": "function"
    },
    {
      "inputs": [
        {
          "internalType": "uint256",
          "name": "profileId",
          "type": "uint256"
        },
        {
          "internalType": "string",
          "name": "metadata",
          "type": "string"
        },
        {
          "components": [
            {
              "internalType": "uint8",
              "name": "v",
              "type": "uint8"
            },
            {
              "internalType": "bytes32",
              "name": "r",
              "type": "bytes32"
            },
            {
              "internalType": "bytes32",
              "name": "s",
              "type": "bytes32"
            },
            {
              "internalType": "uint256",
              "name": "deadline",
              "type": "uint256"
            }
          ],
          "internalType": "struct DataTypes.EIP712Signature",
          "name": "sig",
          "type": "tuple"
        }
      ],
      "name": "setMetadataWithSig",
      "outputs": [],
      "stateMutability": "nonpayable",
      "type": "function"
    },
    {
      "inputs": [
        {
          "internalType": "uint256",
          "name": "profileId",
          "type": "uint256"
        },
        {
          "internalType": "address",
          "name": "operator",
          "type": "address"
        },
        {
          "internalType": "bool",
          "name": "approved",
          "type": "bool"
        }
      ],
      "name": "setOperatorApproval",
      "outputs": [],
      "stateMutability": "nonpayable",
      "type": "function"
    },
    {
      "inputs": [
        {
          "internalType": "uint256",
          "name": "profileId",
          "type": "uint256"
        },
        {
          "internalType": "address",
          "name": "operator",
          "type": "address"
        },
        {
          "internalType": "bool",
          "name": "approved",
          "type": "bool"
        },
        {
          "components": [
            {
              "internalType": "uint8",
              "name": "v",
              "type": "uint8"
            },
            {
              "internalType": "bytes32",
              "name": "r",
              "type": "bytes32"
            },
            {
              "internalType": "bytes32",
              "name": "s",
              "type": "bytes32"
            },
            {
              "internalType": "uint256",
              "name": "deadline",
              "type": "uint256"
            }
          ],
          "internalType": "struct DataTypes.EIP712Signature",
          "name": "sig",
          "type": "tuple"
        }
      ],
      "name": "setOperatorApprovalWithSig",
      "outputs": [],
      "stateMutability": "nonpayable",
      "type": "function"
    },
    {
      "inputs": [
        {
          "internalType": "address",
          "name": "newOwner",
          "type": "address"
        }
      ],
      "name": "setOwner",
      "outputs": [],
      "stateMutability": "nonpayable",
      "type": "function"
    },
    {
      "inputs": [
        {
          "internalType": "address",
          "name": "_profileAddress",
          "type": "address"
        }
      ],
      "name": "setProfileAddress",
      "outputs": [],
      "stateMutability": "nonpayable",
      "type": "function"
    },
    {
      "inputs": [
        {
          "internalType": "address",
          "name": "_signer",
          "type": "address"
        }
      ],
      "name": "setSigner",
      "outputs": [],
      "stateMutability": "nonpayable",
      "type": "function"
    },
    {
      "inputs": [
        {
          "internalType": "enum DataTypes.State",
          "name": "state",
          "type": "uint8"
        }
      ],
      "name": "setState",
      "outputs": [],
      "stateMutability": "nonpayable",
      "type": "function"
    },
    {
      "inputs": [
        {
          "internalType": "uint256",
          "name": "profileId",
          "type": "uint256"
        },
        {
          "internalType": "address",
          "name": "mw",
          "type": "address"
        }
      ],
      "name": "setSubscribeMw",
      "outputs": [],
      "stateMutability": "nonpayable",
      "type": "function"
    },
    {
      "inputs": [],
      "name": "signer",
      "outputs": [
        {
          "internalType": "address",
          "name": "",
          "type": "address"
        }
      ],
      "stateMutability": "view",
      "type": "function"
    },
    {
      "inputs": [
        {
          "internalType": "uint256[]",
          "name": "profileIds",
          "type": "uint256[]"
        },
        {
          "internalType": "bytes[]",
          "name": "subDatas",
          "type": "bytes[]"
        }
      ],
      "name": "subscribe",
      "outputs": [
        {
          "internalType": "uint256[]",
          "name": "",
          "type": "uint256[]"
        }
      ],
      "stateMutability": "nonpayable",
      "type": "function"
    },
    {
      "inputs": [],
      "name": "subscribeNFTBeacon",
      "outputs": [
        {
          "internalType": "address",
          "name": "",
          "type": "address"
        }
      ],
      "stateMutability": "view",
      "type": "function"
    },
    {
      "inputs": [
        {
          "internalType": "uint256[]",
          "name": "profileIds",
          "type": "uint256[]"
        },
        {
          "internalType": "bytes[]",
          "name": "subDatas",
          "type": "bytes[]"
        },
        {
          "internalType": "address",
          "name": "sender",
          "type": "address"
        },
        {
          "components": [
            {
              "internalType": "uint8",
              "name": "v",
              "type": "uint8"
            },
            {
              "internalType": "bytes32",
              "name": "r",
              "type": "bytes32"
            },
            {
              "internalType": "bytes32",
              "name": "s",
              "type": "bytes32"
            },
            {
              "internalType": "uint256",
              "name": "deadline",
              "type": "uint256"
            }
          ],
          "internalType": "struct DataTypes.EIP712Signature",
          "name": "sig",
          "type": "tuple"
        }
      ],
      "name": "subscribeWithSig",
      "outputs": [
        {
          "internalType": "uint256[]",
          "name": "",
          "type": "uint256[]"
        }
      ],
      "stateMutability": "nonpayable",
      "type": "function"
    },
    {
      "inputs": [
        {
          "internalType": "address",
          "name": "newImpl",
          "type": "address"
        }
      ],
      "name": "upgradeBox",
      "outputs": [],
      "stateMutability": "nonpayable",
      "type": "function"
    },
    {
      "inputs": [
        {
          "internalType": "address",
          "name": "newImpl",
          "type": "address"
        }
      ],
      "name": "upgradeProfile",
      "outputs": [],
      "stateMutability": "nonpayable",
      "type": "function"
    },
    {
      "inputs": [
        {
          "internalType": "address",
          "name": "newImplementation",
          "type": "address"
        }
      ],
      "name": "upgradeTo",
      "outputs": [],
      "stateMutability": "nonpayable",
      "type": "function"
    },
    {
      "inputs": [
        {
          "internalType": "address",
          "name": "newImplementation",
          "type": "address"
        },
        {
          "internalType": "bytes",
          "name": "data",
          "type": "bytes"
        }
      ],
      "name": "upgradeToAndCall",
      "outputs": [],
      "stateMutability": "payable",
      "type": "function"
    },
    {
      "inputs": [],
      "name": "version",
      "outputs": [
        {
          "internalType": "uint256",
          "name": "",
          "type": "uint256"
        }
      ],
      "stateMutability": "pure",
      "type": "function"
    },
    {
      "inputs": [
        {
          "internalType": "address",
          "name": "to",
          "type": "address"
        },
        {
          "internalType": "uint256",
          "name": "amount",
          "type": "uint256"
        }
      ],
      "name": "withdraw",
      "outputs": [],
      "stateMutability": "nonpayable",
      "type": "function"
    }
  ],
  "bytecode": {
    "object": "0x60a06040523060805234801561001457600080fd5b506080516146a461004c60003960008181610e6901528181610eac0152818161145101528181611494015261152c01526146a46000f3fe6080604052600436106200025f5760003560e01c806356de96db1162000147578063afa83e6811620000b9578063d0e56c381162000078578063d0e56c38146200079f578063d6f142b714620007c4578063f3fef3a31462000801578063f4954aef1462000826578063f5b281a1146200086057600080fd5b8063afa83e6814620006da578063bd429fa914620006ff578063bf7e214f1462000724578063c152ea801462000746578063c254cc7b146200077a57600080fd5b80636c19e78311620001065780636c19e783146200061257806370446a6b14620006375780637a9e5e4b146200065c5780637ecebe0014620006815780638da5cb5b14620006b257600080fd5b806356de96db146200055c578063593aa283146200058157806359e7846014620005a65780635afd1f9414620005cb5780636c167e0314620005f057600080fd5b80633659cfe611620001e15780634cd84c7011620001a05780634cd84c7014620004b55780634f1ef28614620004da57806352d1902d14620004f157806354fd4d50146200050957806356bfd88c146200051f57600080fd5b80633659cfe614620003ef5780633b02959814620004145780633dd4d031146200045457806342ac00691462000479578063480642ac146200049057600080fd5b806315fcca16116200022e57806315fcca1614620003285780631865c57d146200034d578063238ac93314620003775780632478440c1462000399578063303c14f814620003bb57600080fd5b80630b3a8fbd1462000264578063104ae09f14620002a157806313af403514620002dc5780631459457a1462000303575b600080fd5b3480156200027157600080fd5b506200028962000283366004620031cc565b62000885565b60405162000298919062003269565b60405180910390f35b348015620002ae57600080fd5b50600954620002c3906001600160a01b031681565b6040516001600160a01b03909116815260200162000298565b348015620002e957600080fd5b5062000301620002fb366004620032af565b62000acd565b005b3480156200031057600080fd5b506200030162000322366004620032cf565b62000b59565b3480156200033557600080fd5b5062000301620003473660046200335a565b62000d1c565b3480156200035a57600080fd5b50600954600160a01b900460ff16604051620002989190620033ae565b3480156200038457600080fd5b50600654620002c3906001600160a01b031681565b348015620003a657600080fd5b50600554620002c3906001600160a01b031681565b348015620003c857600080fd5b50620003e0620003da366004620033d7565b62000db2565b6040516200029891906200344e565b348015620003fc57600080fd5b50620003016200040e366004620032af565b62000e5f565b3480156200042157600080fd5b50620004456200043336600462003478565b600a6020526000908152604090205481565b60405190815260200162000298565b3480156200046157600080fd5b506200030162000473366004620032af565b62000f4a565b620004456200048a366004620034db565b62000fe6565b3480156200049d57600080fd5b5062000301620004af3660046200354b565b62001267565b348015620004c257600080fd5b5062000301620004d436600462003578565b620012ae565b62000301620004eb366004620035dc565b62001447565b348015620004fe57600080fd5b50620004456200151f565b3480156200051657600080fd5b50600162000445565b3480156200052c57600080fd5b50620002c36200053e366004620033d7565b6000908152600760205260409020600101546001600160a01b031690565b3480156200056957600080fd5b50620003016200057b366004620036ac565b620015d5565b3480156200058e57600080fd5b5062000301620005a0366004620036cf565b6200169b565b348015620005b357600080fd5b5062000301620005c5366004620032af565b62001863565b348015620005d857600080fd5b5062000301620005ea366004620032af565b6200193b565b348015620005fd57600080fd5b50600454620002c3906001600160a01b031681565b3480156200061f57600080fd5b506200030162000631366004620032af565b620019a7565b3480156200064457600080fd5b5062000301620006563660046200371f565b62001a7e565b3480156200066957600080fd5b50620003016200067b366004620032af565b62001b0c565b3480156200068e57600080fd5b5062000445620006a0366004620032af565b60086020526000908152604090205481565b348015620006bf57600080fd5b50600054620002c3906201000090046001600160a01b031681565b348015620006e757600080fd5b5062000301620006f93660046200373f565b62001c03565b3480156200070c57600080fd5b50620003016200071e36600462003786565b62001c84565b3480156200073157600080fd5b50600154620002c3906001600160a01b031681565b3480156200075357600080fd5b506006546200076990600160a01b900460ff1681565b604051901515815260200162000298565b3480156200078757600080fd5b506200030162000799366004620032af565b62001d7c565b348015620007ac57600080fd5b5062000301620007be366004620037ae565b62001e50565b348015620007d157600080fd5b5062000769620007e3366004620032af565b6001600160a01b03166000908152600b602052604090205460ff1690565b3480156200080e57600080fd5b506200030162000820366004620037e4565b62001f9f565b3480156200083357600080fd5b50620002c362000845366004620033d7565b6000908152600760205260409020546001600160a01b031690565b3480156200086d57600080fd5b50620002896200087f36600462003805565b620020eb565b60606002600954600160a01b900460ff166002811115620008aa57620008aa62003398565b03620008f25760405162461bcd60e51b815260206004820152601260248201527110dbdb9d1c9858dd081a5cc81c185d5cd95960721b60448201526064015b60405180910390fd5b8360008167ffffffffffffffff811115620009115762000911620035c6565b6040519080825280602002602001820160405280156200093b578160200160208202803683370190505b50905060005b82811015620009b4578787828181106200095f576200095f62003878565b90506020028101906200097391906200388e565b60405162000983929190620038d8565b6040518091039020828281518110620009a057620009a062003878565b602090810291909101015260010162000941565b5062000ab162000aa97ff72b925d730e5098c32b0b5c445c834d8e086946dcb54026441561b84299ff738b8b604051602001620009f3929190620038e8565b604051602081830303815290604052805190602001208460405160200162000a1c919062003915565b60408051601f1981840301815291815281516020928301206001600160a01b038c16600090815260089093529082208054919262000a5a8362003963565b90915550604080516020810195909552840192909252606083810191909152608083019190915287013560a082015260c0015b6040516020818303038152906040528051906020012062002163565b8686620021ba565b62000ac0858a8a8a8a620022d5565b9998505050505050505050565b62000ae5336000356001600160e01b031916620027f2565b62000b045760405162461bcd60e51b8152600401620008e9906200397f565b6000805462010000600160b01b031916620100006001600160a01b038416908102919091178255604051909133917f8292fce18fa69edf4db7b94ea2e58241df0ae57f97e0a6c9b29067028bf92d769190a350565b600054610100900460ff161580801562000b7a5750600054600160ff909116105b62000bc85760405162461bcd60e51b815260206004820152601c60248201527f436f6e747261637420616c726561647920696e697469616c697a6564000000006044820152606401620008e9565b6000805460ff19166001179055801562000bec576000805461ff0019166101001790555b62000bf88683620028a9565b604080518082018252600b81526a4379626572456e67696e6560a81b6020808301918252835180850190945260018452603160f81b9301929092525190206002557fc89efdaa54c0f20c7adf612882df0950f5a951637e0307cdcb4c672f298b8bc6600355600680546001600160a01b038089166001600160a01b0319928316179092556004805488841690831617905560058054878416908316179055600980549286169290911691909117905562000cb16200294e565b604080516001600160a01b0387811682528681166020830152858116828401529151918816917f420f11aae030b1b71b7480842c183b50e595c7c74203eb478d183ad7d3fdbd269181900360600190a2801562000d14576000805461ff00191690555b505050505050565b62000d34336000356001600160e01b031916620027f2565b62000d535760405162461bcd60e51b8152600401620008e9906200397f565b6001600160a01b0382166000818152600b6020526040808220805485151560ff1982168117909255915160ff909216939092841515927f992e6b79fe94e713aaa96a1336d66a2241bf2312b0c121b8e35357cc2e3c35729190a4505050565b600081815260076020526040902060020180546060919062000dd490620039a5565b80601f016020809104026020016040519081016040528092919081815260200182805462000e0290620039a5565b801562000e535780601f1062000e275761010080835404028352916020019162000e53565b820191906000526020600020905b81548152906001019060200180831162000e3557829003601f168201915b50505050509050919050565b6001600160a01b037f000000000000000000000000000000000000000000000000000000000000000016300362000eaa5760405162461bcd60e51b8152600401620008e990620039db565b7f00000000000000000000000000000000000000000000000000000000000000006001600160a01b031662000ef560008051602062004628833981519152546001600160a01b031690565b6001600160a01b03161462000f1e5760405162461bcd60e51b8152600401620008e99062003a27565b62000f2981620029ca565b6040805160008082526020820190925262000f479183919062002a01565b50565b62000f62336000356001600160e01b031916620027f2565b62000f815760405162461bcd60e51b8152600401620008e9906200397f565b600554604051631b2ce7f360e11b81526001600160a01b03838116600483015290911690633659cfe6906024015b600060405180830381600087803b15801562000fca57600080fd5b505af115801562000fdf573d6000803e3d6000fd5b5050505050565b6000620010ad6200109a7f3abd34d9506d559239cf0471d632840746c8178067217731114e9182eb8bc7ac87878760405162001024929190620038d8565b60408051918290039091206001600160a01b038b166000908152600860205291822080549192620010558362003963565b91905055876060013560405160200162000a8d9594939291909485526001600160a01b0393909316602085015260408401919091526060830152608082015260a00190565b6006546001600160a01b031684620021ba565b620010ba84843462002b7e565b600654600160a01b900460ff1662001141576005546040516335313c2160e11b81526001600160a01b03878116600483015290911690636a627842906024016020604051808303816000875af115801562001119573d6000803e3d6000fd5b505050506040513d601f19601f820116820180604052508101906200113f919062003a73565b505b838360405162001153929190620038d8565b604051908190038120906001600160a01b038716907f6ba0831d2f62ae5cbf7214bcc1d79c5da1d705f12811efda0beaa840006f874e90600090a36004546040805160606020601f8801819004028201810183529181018681526001600160a01b0390931692634a398db49289929182918a908a9081908501838280828437600092018290525093855250506040805160208181018352938152929093019190915250516001600160e01b031960e085901b1681526200121892919060040162003a8d565b6020604051808303816000875af115801562001238573d6000803e3d6000fd5b505050506040513d601f19601f820116820180604052508101906200125e919062003a73565b95945050505050565b6200127f336000356001600160e01b031916620027f2565b6200129e5760405162461bcd60e51b8152600401620008e9906200397f565b620012aa828262002ce2565b5050565b600480546040516331a9108f60e11b81529182018690526000916001600160a01b0390911690636352211e90602401602060405180830381865afa158015620012fb573d6000803e3d6000fd5b505050506040513d601f19601f8201168201806040525081019062001321919062003ad7565b6001600160a01b03811660009081526008602052604081208054929350620013d192620013c9927f04429e9d0185bde883846db8c02437c8ccaeb487f6227d7fe8ab090e5a7dd57d928a928a928a92906200137c8362003963565b91905055886060013560405160200162000a8d9695949392919095865260208601949094526001600160a01b0392909216604085015215156060840152608083015260a082015260c00190565b8284620021ba565b600480546040516315f507cd60e31b81529182018790526001600160a01b0386811660248401528515156044840152169063afa83e68906064015b600060405180830381600087803b1580156200142757600080fd5b505af11580156200143c573d6000803e3d6000fd5b505050505050505050565b6001600160a01b037f0000000000000000000000000000000000000000000000000000000000000000163003620014925760405162461bcd60e51b8152600401620008e990620039db565b7f00000000000000000000000000000000000000000000000000000000000000006001600160a01b0316620014dd60008051602062004628833981519152546001600160a01b031690565b6001600160a01b031614620015065760405162461bcd60e51b8152600401620008e99062003a27565b6200151182620029ca565b620012aa8282600162002a01565b6000306001600160a01b037f00000000000000000000000000000000000000000000000000000000000000001614620015c15760405162461bcd60e51b815260206004820152603860248201527f555550535570677261646561626c653a206d757374206e6f742062652063616c60448201527f6c6564207468726f7567682064656c656761746563616c6c00000000000000006064820152608401620008e9565b506000805160206200462883398151915290565b620015ed336000356001600160e01b031916620027f2565b6200160c5760405162461bcd60e51b8152600401620008e9906200397f565b60098054600160a01b80820460ff16928492909160ff60a01b19909116908360028111156200163f576200163f62003398565b021790555081600281111562001659576200165962003398565b8160028111156200166e576200166e62003398565b6040517f853942c2637d13f4e0af0c4d46f79ca50e9ebc86696676ec6ec9ad73049b15f390600090a35050565b600480546040516331a9108f60e11b81529182018590526001600160a01b031690636352211e90602401602060405180830381865afa158015620016e3573d6000803e3d6000fd5b505050506040513d601f19601f8201168201806040525081019062001709919062003ad7565b6001600160a01b0316336001600160a01b0316148062001797575060048054604051627855cb60e91b81529182018590523360248301526001600160a01b03169063f0ab960090604401602060405180830381865afa15801562001771573d6000803e3d6000fd5b505050506040513d601f19601f8201168201806040525081019062001797919062003af7565b620017f55760405162461bcd60e51b815260206004820152602760248201527f4f6e6c79206f776e6572206f72206f70657261746f722063616e20736574206d6044820152666574616461746160c81b6064820152608401620008e9565b6004805460405163593aa28360e01b81526001600160a01b039091169163593aa283916200182a918791879187910162003b40565b600060405180830381600087803b1580156200184557600080fd5b505af11580156200185a573d6000803e3d6000fd5b50505050505050565b6200187b336000356001600160e01b031916620027f2565b6200189a5760405162461bcd60e51b8152600401620008e9906200397f565b6001600160a01b038116620018e95760405162461bcd60e51b81526020600482015260146024820152737a65726f20616464726573732070726f66696c6560601b6044820152606401620008e9565b600480546001600160a01b038381166001600160a01b0319831681179093556040519116919082907f0fdb170ade84818cdb0d5651b9671d543aa6c93e703ef10bae7c8a23c535288490600090a35050565b62001953336000356001600160e01b031916620027f2565b620019725760405162461bcd60e51b8152600401620008e9906200397f565b60048054604051631b2ce7f360e11b81526001600160a01b0384811693820193909352911690633659cfe69060240162000faf565b620019bf336000356001600160e01b031916620027f2565b620019de5760405162461bcd60e51b8152600401620008e9906200397f565b6001600160a01b03811662001a2c5760405162461bcd60e51b81526020600482015260136024820152723d32b9379030b2323932b9b99039b4b3b732b960691b6044820152606401620008e9565b600680546001600160a01b038381166001600160a01b0319831681179093556040519116919082907f3271c8694494a7cc76cd185c743e9ee6b515a043ea98c0db7f5ca112f694add490600090a35050565b62001a96336000356001600160e01b031916620027f2565b62001ab55760405162461bcd60e51b8152600401620008e9906200397f565b6006805460ff60a01b198116600160a01b841515818102929092179093556040519290910460ff1691821515907f7b9348ddc46e7163e6336dc48fb52500ac94d04a43fc6e0d5540ea379f56c98990600090a35050565b6000546201000090046001600160a01b031633148062001bad575060015460405163b700961360e01b81526001600160a01b039091169063b70096139062001b6990339030906001600160e01b0319600035169060040162003b5c565b602060405180830381865afa15801562001b87573d6000803e3d6000fd5b505050506040513d601f19601f8201168201806040525081019062001bad919062003af7565b62001bb757600080fd5b600180546001600160a01b0319166001600160a01b03831690811790915560405133907fa3396fd7f6e0a21b50e5089d2da70d5ac0a3bbbd1f617a93f134b7638998019890600090a350565b8262001c10813362002da6565b600480546040516315f507cd60e31b81529182018690526001600160a01b0385811660248401528415156044840152169063afa83e6890606401600060405180830381600087803b15801562001c6557600080fd5b505af115801562001c7a573d6000803e3d6000fd5b5050505050505050565b8162001c91813362002da6565b6001600160a01b0382166000908152600b602052604090205460ff1662001d075760405162461bcd60e51b815260206004820152602360248201527f537562736372696265206d6964646c6577617265206973206e6f7420616c6c6f6044820152621dd95960ea1b6064820152608401620008e9565b60008381526007602090815260409182902060010180546001600160a01b031981166001600160a01b0387811691821790935584519290911680835292820152909185917f436830c7d19e9464557f9e05f38a04976c4c94185dc8f2e783788e4804adcb79910160405180910390a250505050565b62001d94336000356001600160e01b031916620027f2565b62001db35760405162461bcd60e51b8152600401620008e9906200397f565b6001600160a01b03811662001dfe5760405162461bcd60e51b815260206004820152601060248201526f0f4cae4de40c2c8c8e4cae6e640c4def60831b6044820152606401620008e9565b600580546001600160a01b038381166001600160a01b0319831681179093556040519116919082907f7d06c68b25a8d9ec0d73d0340a23ba2f1eb21c26b894e89cc0282bf671677c4390600090a35050565b600480546040516331a9108f60e11b81529182018690526000916001600160a01b0390911690636352211e90602401602060405180830381865afa15801562001e9d573d6000803e3d6000fd5b505050506040513d601f19601f8201168201806040525081019062001ec3919062003ad7565b905062001f6a620013c97f23359961f741a908f9a68b097206ad2f1eb5776fbe35c38d13550918bbb704de87878760405162001f01929190620038d8565b60408051918290039091206001600160a01b038716600090815260086020529182208054919262001f328362003963565b90915550604080516020810195909552840192909252606083810191909152608083019190915285013560a082015260c00162000a8d565b6004805460405163593aa28360e01b81526001600160a01b039091169163593aa283916200140c918991899189910162003b40565b62001fb7336000356001600160e01b031916620027f2565b62001fd65760405162461bcd60e51b8152600401620008e9906200397f565b6001600160a01b0382166200202e5760405162461bcd60e51b815260206004820152601c60248201527f776974686472617720746f20746865207a65726f2061646472657373000000006044820152606401620008e9565b4781811015620020785760405162461bcd60e51b8152602060048201526014602482015273496e73756666696369656e742062616c616e636560601b6044820152606401620008e9565b6040516001600160a01b0384169083156108fc029084906000818181858888f19350505050158015620020af573d6000803e3d6000fd5b5060405182906001600160a01b038516907f884edad9ce6fa2440d8a54cc123490eb96d2768479d49ff9c7366125a942436490600090a3505050565b60606002600954600160a01b900460ff16600281111562002110576200211062003398565b03620021545760405162461bcd60e51b815260206004820152601260248201527110dbdb9d1c9858dd081a5cc81c185d5cd95960721b6044820152606401620008e9565b6200125e3386868686620022d5565b6000620021b46200217362002e66565b8360405161190160f01b6020820152602281018390526042810182905260009060620160405160208183030381529060405280519060200120905092915050565b92915050565b4281606001351015620022035760405162461bcd60e51b815260206004820152601060248201526f111958591b1a5b9948195e1c1a5c995960821b6044820152606401620008e9565b600060018462002217602085018562003b89565b604080516000815260208181018084529490945260ff9092168282015291850135606082015290840135608082015260a0016020604051602081039080840390855afa1580156200226c573d6000803e3d6000fd5b505050602060405103519050826001600160a01b0316816001600160a01b031614620022cf5760405162461bcd60e51b8152602060048201526011602482015270496e76616c6964207369676e617475726560781b6044820152606401620008e9565b50505050565b606083620023265760405162461bcd60e51b815260206004820152601760248201527f4e6f2070726f66696c65206964732070726f76696465640000000000000000006044820152606401620008e9565b8382146200238a5760405162461bcd60e51b815260206004820152602a60248201527f4c656e676874206d6973736d617463682070726f66696c652069647320616e646044820152692073756220646174617360b01b6064820152608401620008e9565b60008467ffffffffffffffff811115620023a857620023a8620035c6565b604051908082528060200260200182016040528015620023d2578160200160208202803683370190505b50905060005b858110156200279e57600060076000898985818110620023fc57620023fc62003878565b602090810292909201358352508101919091526040016000908120546001600160a01b031691506007818a8a868181106200243b576200243b62003878565b60209081029290920135835250810191909152604001600020600101546001600160a01b03908116915082166200257d57600063fe4b84df60e01b8a8a868181106200248b576200248b62003878565b90506020020135604051602401620024a591815260200190565b60408051601f198184030181529181526020820180516001600160e01b03166001600160e01b03199094169390931790925260095491519092506001600160a01b03909116908290620024f89062003140565b6200250592919062003bae565b604051809103906000f08015801562002522573d6000803e3d6000fd5b50925082600760008c8c888181106200253f576200253f62003878565b90506020020135815260200190815260200160002060000160006101000a8154816001600160a01b0302191690836001600160a01b03160217905550505b6001600160a01b038116156200263a57806001600160a01b031663534586028a8a86818110620025b157620025b162003878565b905060200201358c858b8b89818110620025cf57620025cf62003878565b9050602002810190620025e391906200388e565b6040518663ffffffff1660e01b81526004016200260595949392919062003bd4565b600060405180830381600087803b1580156200262057600080fd5b505af115801562002635573d6000803e3d6000fd5b505050505b6040516335313c2160e11b81526001600160a01b038b81166004830152831690636a627842906024016020604051808303816000875af115801562002683573d6000803e3d6000fd5b505050506040513d601f19601f82011682018060405250810190620026a9919062003a73565b848481518110620026be57620026be62003878565b60209081029190910101526001600160a01b038116156200278657806001600160a01b03166395d4e4e68a8a86818110620026fd57620026fd62003878565b905060200201358c858b8b898181106200271b576200271b62003878565b90506020028101906200272f91906200388e565b6040518663ffffffff1660e01b81526004016200275195949392919062003bd4565b600060405180830381600087803b1580156200276c57600080fd5b505af115801562002781573d6000803e3d6000fd5b505050505b50508080620027959062003963565b915050620023d8565b50866001600160a01b03167f27b17b6f467ce25e2dfa37e0ceb213fb6e0983e0b86fb64388a2a8ccb76f941287878787604051620027e0949392919062003c14565b60405180910390a29695505050505050565b6001546000906001600160a01b0316801580159062002882575060405163b700961360e01b81526001600160a01b0382169063b7009613906200283e9087903090889060040162003b5c565b602060405180830381865afa1580156200285c573d6000803e3d6000fd5b505050506040513d601f19601f8201168201806040525081019062002882919062003af7565b80620028a157506000546001600160a01b038581166201000090920416145b949350505050565b6000805462010000600160b01b031916620100006001600160a01b03858116918202929092178355600180546001600160a01b03191692851692909217909155604051909133917f8292fce18fa69edf4db7b94ea2e58241df0ae57f97e0a6c9b29067028bf92d769190a36040516001600160a01b0382169033907fa3396fd7f6e0a21b50e5089d2da70d5ac0a3bbbd1f617a93f134b7638998019890600090a35050565b6200296360006706f05b59d3b2000062002ce2565b62002978600167016345785d8a000062002ce2565b6200298c600266d529ae9e86000062002ce2565b620029a06003666a94d74f43000062002ce2565b620029b46004662386f26fc1000062002ce2565b620029c86005661550f7dca7000062002ce2565b565b620029e2336000356001600160e01b031916620027f2565b62000f475760405162461bcd60e51b8152600401620008e9906200397f565b7f4910fdfa16fed3260ed0e7147f7cc6da11a60208b5b9406d12a635614ffd91435460ff161562002a3c5762002a378362002ea5565b505050565b826001600160a01b03166352d1902d6040518163ffffffff1660e01b8152600401602060405180830381865afa92505050801562002a99575060408051601f3d908101601f1916820190925262002a969181019062003a73565b60015b62002afe5760405162461bcd60e51b815260206004820152602e60248201527f45524331393637557067726164653a206e657720696d706c656d656e7461746960448201526d6f6e206973206e6f74205555505360901b6064820152608401620008e9565b60008051602062004628833981519152811462002b705760405162461bcd60e51b815260206004820152602960248201527f45524331393637557067726164653a20756e737570706f727465642070726f786044820152681a58589b195555525160ba1b6064820152608401620008e9565b5062002a3783838362002f44565b600083838080601f0160208091040260200160405190810160405280939291908181526020018383808284376000920182905250600590525050600a602052507ff35035bc2b01d44bd35a1dcdc552315cffb73da35cfd60570b7b777f98036f9f548151919250906001111562002c305760405162461bcd60e51b8152602060048201526015602482015274092dcecc2d8d2c840d0c2dcc8d8ca40d8cadccee8d605b1b6044820152606401620008e9565b60068251101562002c9d57600a60006001845162002c4f919062003cf5565b600581111562002c635762002c6362003398565b600581111562002c775762002c7762003398565b600581111562002c8b5762002c8b62003398565b81526020019081526020016000205490505b8083101562000fdf5760405162461bcd60e51b815260206004820152601060248201526f496e73756666696369656e742066656560801b6044820152606401620008e9565b6000600a600084600581111562002cfd5762002cfd62003398565b600581111562002d115762002d1162003398565b815260200190815260200160002054905081600a600085600581111562002d3c5762002d3c62003398565b600581111562002d505762002d5062003398565b8152602081019190915260400160002055818184600581111562002d785762002d7862003398565b6040517f57f4430d87780ed0e7dbd734b2d369df176e10dc95bd7643d6c5643edec6656d90600090a4505050565b600480546040516331a9108f60e11b81529182018490526001600160a01b0383811692911690636352211e90602401602060405180830381865afa15801562002df3573d6000803e3d6000fd5b505050506040513d601f19601f8201168201806040525081019062002e19919062003ad7565b6001600160a01b031614620012aa5760405162461bcd60e51b815260206004820152601260248201527127b7363c90383937b334b6329037bbb732b960711b6044820152606401620008e9565b600062002ea07f8b73c3c69bb8fe3d512ecc4cf759cc79239f7b179b0ffacaa9a75d522b39400f62002e9760025490565b60035462002f6f565b905090565b6001600160a01b0381163b62002f145760405162461bcd60e51b815260206004820152602d60248201527f455243313936373a206e657720696d706c656d656e746174696f6e206973206e60448201526c1bdd08184818dbdb9d1c9858dd609a1b6064820152608401620008e9565b6000805160206200462883398151915280546001600160a01b0319166001600160a01b0392909216919091179055565b62002f4f8362002fb9565b60008251118062002f5d5750805b1562002a3757620022cf838362002ffb565b6040805160208101859052908101839052606081018290524660808201523060a082015260009060c0016040516020818303038152906040528051906020012090505b9392505050565b62002fc48162002ea5565b6040516001600160a01b038216907fbc7cd75a20ee27fd9adebab32041f755214dbc6bffa90cc0225b39da2e5c2d3b90600090a250565b606062002fb28383604051806060016040528060278152602001620046486027913960606001600160a01b0384163b620030875760405162461bcd60e51b815260206004820152602660248201527f416464726573733a2064656c65676174652063616c6c20746f206e6f6e2d636f6044820152651b9d1c9858dd60d21b6064820152608401620008e9565b600080856001600160a01b031685604051620030a4919062003d0f565b600060405180830381855af49150503d8060008114620030e1576040519150601f19603f3d011682016040523d82523d6000602084013e620030e6565b606091505b5091509150620030f882828662003102565b9695505050505050565b606083156200311357508162002fb2565b825115620031245782518084602001fd5b8160405162461bcd60e51b8152600401620008e991906200344e565b6108fa8062003d2e83390190565b60008083601f8401126200316157600080fd5b50813567ffffffffffffffff8111156200317a57600080fd5b6020830191508360208260051b85010111156200319657600080fd5b9250929050565b6001600160a01b038116811462000f4757600080fd5b600060808284031215620031c657600080fd5b50919050565b60008060008060008060e08789031215620031e657600080fd5b863567ffffffffffffffff80821115620031ff57600080fd5b6200320d8a838b016200314e565b909850965060208901359150808211156200322757600080fd5b506200323689828a016200314e565b90955093505060408701356200324c816200319d565b91506200325d8860608901620031b3565b90509295509295509295565b6020808252825182820181905260009190848201906040850190845b81811015620032a35783518352928401929184019160010162003285565b50909695505050505050565b600060208284031215620032c257600080fd5b813562002fb2816200319d565b600080600080600060a08688031215620032e857600080fd5b8535620032f5816200319d565b9450602086013562003307816200319d565b9350604086013562003319816200319d565b925060608601356200332b816200319d565b915060808601356200333d816200319d565b809150509295509295909350565b801515811462000f4757600080fd5b600080604083850312156200336e57600080fd5b82356200337b816200319d565b915060208301356200338d816200334b565b809150509250929050565b634e487b7160e01b600052602160045260246000fd5b6020810160038310620033d157634e487b7160e01b600052602160045260246000fd5b91905290565b600060208284031215620033ea57600080fd5b5035919050565b60005b838110156200340e578181015183820152602001620033f4565b83811115620022cf5750506000910152565b600081518084526200343a816020860160208601620033f1565b601f01601f19169290920160200192915050565b60208152600062002fb2602083018462003420565b8035600681106200347357600080fd5b919050565b6000602082840312156200348b57600080fd5b62002fb28262003463565b60008083601f840112620034a957600080fd5b50813567ffffffffffffffff811115620034c257600080fd5b6020830191508360208285010111156200319657600080fd5b60008060008060c08587031215620034f257600080fd5b8435620034ff816200319d565b9350602085013567ffffffffffffffff8111156200351c57600080fd5b6200352a8782880162003496565b90945092506200354090508660408701620031b3565b905092959194509250565b600080604083850312156200355f57600080fd5b6200356a8362003463565b946020939093013593505050565b60008060008060e085870312156200358f57600080fd5b843593506020850135620035a3816200319d565b92506040850135620035b5816200334b565b9150620035408660608701620031b3565b634e487b7160e01b600052604160045260246000fd5b60008060408385031215620035f057600080fd5b8235620035fd816200319d565b9150602083013567ffffffffffffffff808211156200361b57600080fd5b818501915085601f8301126200363057600080fd5b813581811115620036455762003645620035c6565b604051601f8201601f19908116603f01168101908382118183101715620036705762003670620035c6565b816040528281528860208487010111156200368a57600080fd5b8260208601602083013760006020848301015280955050505050509250929050565b600060208284031215620036bf57600080fd5b81356003811062002fb257600080fd5b600080600060408486031215620036e557600080fd5b83359250602084013567ffffffffffffffff8111156200370457600080fd5b620037128682870162003496565b9497909650939450505050565b6000602082840312156200373257600080fd5b813562002fb2816200334b565b6000806000606084860312156200375557600080fd5b83359250602084013562003769816200319d565b915060408401356200377b816200334b565b809150509250925092565b600080604083850312156200379a57600080fd5b8235915060208301356200338d816200319d565b60008060008060c08587031215620037c557600080fd5b84359350602085013567ffffffffffffffff8111156200351c57600080fd5b60008060408385031215620037f857600080fd5b82356200356a816200319d565b600080600080604085870312156200381c57600080fd5b843567ffffffffffffffff808211156200383557600080fd5b62003843888389016200314e565b909650945060208701359150808211156200385d57600080fd5b506200386c878288016200314e565b95989497509550505050565b634e487b7160e01b600052603260045260246000fd5b6000808335601e19843603018112620038a657600080fd5b83018035915067ffffffffffffffff821115620038c257600080fd5b6020019150368190038213156200319657600080fd5b8183823760009101908152919050565b60006001600160fb1b03831115620038ff57600080fd5b8260051b80858437600092019182525092915050565b815160009082906020808601845b83811015620039415781518552938201939082019060010162003923565b50929695505050505050565b634e487b7160e01b600052601160045260246000fd5b6000600182016200397857620039786200394d565b5060010190565b6020808252600c908201526b15539055551213d49256915160a21b604082015260600190565b600181811c90821680620039ba57607f821691505b602082108103620031c657634e487b7160e01b600052602260045260246000fd5b6020808252602c908201527f46756e6374696f6e206d7573742062652063616c6c6564207468726f7567682060408201526b19195b1959d85d1958d85b1b60a21b606082015260800190565b6020808252602c908201527f46756e6374696f6e206d7573742062652063616c6c6564207468726f7567682060408201526b6163746976652070726f787960a01b606082015260800190565b60006020828403121562003a8657600080fd5b5051919050565b60018060a01b0383168152604060208201526000825160408084015262003ab8608084018262003420565b90506020840151603f19848303016060850152620030f8828262003420565b60006020828403121562003aea57600080fd5b815162002fb2816200319d565b60006020828403121562003b0a57600080fd5b815162002fb2816200334b565b81835281816020850137506000828201602090810191909152601f909101601f19169091010190565b8381526040602082015260006200125e60408301848662003b17565b6001600160a01b0393841681529190921660208201526001600160e01b0319909116604082015260600190565b60006020828403121562003b9c57600080fd5b813560ff8116811462002fb257600080fd5b6001600160a01b0383168152604060208201819052600090620028a19083018462003420565b8581526001600160a01b0385811660208301528416604082015260806060820181905260009062003c09908301848662003b17565b979650505050505050565b6040808252810184905260006001600160fb1b0385111562003c3557600080fd5b8460051b808760608501378083019050606081016020606085840301818601528186835260808401905060808760051b85010192508760005b8881101562003ce557858503607f190183528135368b9003601e1901811262003c9657600080fd5b8a01848101903567ffffffffffffffff81111562003cb357600080fd5b80360382131562003cc357600080fd5b62003cd087828462003b17565b96505050918301919083019060010162003c6e565b50929a9950505050505050505050565b60008282101562003d0a5762003d0a6200394d565b500390565b6000825162003d23818460208701620033f1565b919091019291505056fe60806040526040516108fa3803806108fa83398101604081905261002291610456565b61002e82826000610035565b5050610580565b61003e83610100565b6040516001600160a01b038416907f1cf3b03a6cf19fa2baba4df148e9dcabedea7f8a5c07840e207e5c089be95d3e90600090a260008251118061007f5750805b156100fb576100f9836001600160a01b0316635c60da1b6040518163ffffffff1660e01b8152600401602060405180830381865afa1580156100c5573d6000803e3d6000fd5b505050506040513d601f19601f820116820180604052508101906100e99190610516565b836102a360201b6100291760201c565b505b505050565b610113816102cf60201b6100551760201c565b6101725760405162461bcd60e51b815260206004820152602560248201527f455243313936373a206e657720626561636f6e206973206e6f74206120636f6e6044820152641d1c9858dd60da1b60648201526084015b60405180910390fd5b6101e6816001600160a01b0316635c60da1b6040518163ffffffff1660e01b8152600401602060405180830381865afa1580156101b3573d6000803e3d6000fd5b505050506040513d601f19601f820116820180604052508101906101d79190610516565b6102cf60201b6100551760201c565b61024b5760405162461bcd60e51b815260206004820152603060248201527f455243313936373a20626561636f6e20696d706c656d656e746174696f6e206960448201526f1cc81b9bdd08184818dbdb9d1c9858dd60821b6064820152608401610169565b806102827fa3f0ad74e5423aebfd80d3ef4346578335a9a72aeaee59ff6cb3582b35133d5060001b6102de60201b6100641760201c565b80546001600160a01b0319166001600160a01b039290921691909117905550565b60606102c883836040518060600160405280602781526020016108d3602791396102e1565b9392505050565b6001600160a01b03163b151590565b90565b60606001600160a01b0384163b6103495760405162461bcd60e51b815260206004820152602660248201527f416464726573733a2064656c65676174652063616c6c20746f206e6f6e2d636f6044820152651b9d1c9858dd60d21b6064820152608401610169565b600080856001600160a01b0316856040516103649190610531565b600060405180830381855af49150503d806000811461039f576040519150601f19603f3d011682016040523d82523d6000602084013e6103a4565b606091505b5090925090506103b58282866103bf565b9695505050505050565b606083156103ce5750816102c8565b8251156103de5782518084602001fd5b8160405162461bcd60e51b8152600401610169919061054d565b80516001600160a01b038116811461040f57600080fd5b919050565b634e487b7160e01b600052604160045260246000fd5b60005b8381101561044557818101518382015260200161042d565b838111156100f95750506000910152565b6000806040838503121561046957600080fd5b610472836103f8565b60208401519092506001600160401b038082111561048f57600080fd5b818501915085601f8301126104a357600080fd5b8151818111156104b5576104b5610414565b604051601f8201601f19908116603f011681019083821181831017156104dd576104dd610414565b816040528281528860208487010111156104f657600080fd5b61050783602083016020880161042a565b80955050505050509250929050565b60006020828403121561052857600080fd5b6102c8826103f8565b6000825161054381846020870161042a565b9190910192915050565b602081526000825180602084015261056c81604085016020870161042a565b601f01601f19169190910160400192915050565b6103448061058f6000396000f3fe60806040523661001357610011610017565b005b6100115b610027610022610067565b610100565b565b606061004e83836040518060600160405280602781526020016102e860279139610124565b9392505050565b6001600160a01b03163b151590565b90565b600061009a7fa3f0ad74e5423aebfd80d3ef4346578335a9a72aeaee59ff6cb3582b35133d50546001600160a01b031690565b6001600160a01b0316635c60da1b6040518163ffffffff1660e01b8152600401602060405180830381865afa1580156100d7573d6000803e3d6000fd5b505050506040513d601f19601f820116820180604052508101906100fb919061023f565b905090565b3660008037600080366000845af43d6000803e80801561011f573d6000f35b3d6000fd5b60606001600160a01b0384163b6101915760405162461bcd60e51b815260206004820152602660248201527f416464726573733a2064656c65676174652063616c6c20746f206e6f6e2d636f6044820152651b9d1c9858dd60d21b60648201526084015b60405180910390fd5b600080856001600160a01b0316856040516101ac9190610298565b600060405180830381855af49150503d80600081146101e7576040519150601f19603f3d011682016040523d82523d6000602084013e6101ec565b606091505b50915091506101fc828286610206565b9695505050505050565b6060831561021557508161004e565b8251156102255782518084602001fd5b8160405162461bcd60e51b815260040161018891906102b4565b60006020828403121561025157600080fd5b81516001600160a01b038116811461004e57600080fd5b60005b8381101561028357818101518382015260200161026b565b83811115610292576000848401525b50505050565b600082516102aa818460208701610268565b9190910192915050565b60208152600082518060208401526102d3816040850160208701610268565b601f01601f1916919091016040019291505056fe416464726573733a206c6f772d6c6576656c2064656c65676174652063616c6c206661696c6564a26469706673582212206b540c4d3220f5ea236a10885ef11ab6aea5dc982e0fdb4398557a38e7c8bd5b64736f6c634300080e0033416464726573733a206c6f772d6c6576656c2064656c65676174652063616c6c206661696c6564360894a13ba1a3210667c828492db98dca3e2076cc3735a920a3ca505d382bbc416464726573733a206c6f772d6c6576656c2064656c65676174652063616c6c206661696c6564a26469706673582212208c1c46c9ae4986fc7486a31f6c4d9ac7c771e302831b971a7d1c70edbe5eb7ee64736f6c634300080e0033",
    "linkReferences": {}
  },
  "methodIdentifiers": {
    "allowSubscribeMw(address,bool)": "15fcca16",
    "authority()": "bf7e214f",
    "boxAddress()": "2478440c",
    "boxGiveawayEnded()": "c152ea80",
    "feeMapping(uint8)": "3b029598",
    "getState()": "1865c57d",
    "getSubscribeMw(uint256)": "56bfd88c",
    "getSubscribeNFT(uint256)": "f4954aef",
    "getSubscribeNFTTokenURI(uint256)": "303c14f8",
    "initialize(address,address,address,address,address)": "1459457a",
    "isSubscribeMwAllowed(address)": "d6f142b7",
    "nonces(address)": "7ecebe00",
    "owner()": "8da5cb5b",
    "profileAddress()": "6c167e03",
    "proxiableUUID()": "52d1902d",
    "register(address,string,(uint8,bytes32,bytes32,uint256))": "42ac0069",
    "setAuthority(address)": "7a9e5e4b",
    "setBoxAddress(address)": "c254cc7b",
    "setBoxGiveawayEnded(bool)": "70446a6b",
    "setFeeByTier(uint8,uint256)": "480642ac",
    "setMetadata(uint256,string)": "593aa283",
    "setMetadataWithSig(uint256,string,(uint8,bytes32,bytes32,uint256))": "d0e56c38",
    "setOperatorApproval(uint256,address,bool)": "afa83e68",
    "setOperatorApprovalWithSig(uint256,address,bool,(uint8,bytes32,bytes32,uint256))": "4cd84c70",
    "setOwner(address)": "13af4035",
    "setProfileAddress(address)": "59e78460",
    "setSigner(address)": "6c19e783",
    "setState(uint8)": "56de96db",
    "setSubscribeMw(uint256,address)": "bd429fa9",
    "signer()": "238ac933",
    "subscribe(uint256[],bytes[])": "f5b281a1",
    "subscribeNFTBeacon()": "104ae09f",
    "subscribeWithSig(uint256[],bytes[],address,(uint8,bytes32,bytes32,uint256))": "0b3a8fbd",
    "upgradeBox(address)": "3dd4d031",
    "upgradeProfile(address)": "5afd1f94",
    "upgradeTo(address)": "3659cfe6",
    "upgradeToAndCall(address,bytes)": "4f1ef286",
    "version()": "54fd4d50",
    "withdraw(address,uint256)": "f3fef3a3"
  },
  "id": 19
}