{
  "abi": [
    {
      "inputs": [
        {
          "internalType": "address",
          "name": "owner",
          "type": "address"
        },
        {
          "internalType": "address",
          "name": "engine",
          "type": "address"
        }
      ],
      "stateMutability": "nonpayable",
      "type": "constructor"
    },
    {
      "anonymous": false,
      "inputs": [
        {
          "indexed": true,
          "internalType": "address",
          "name": "user",
          "type": "address"
        },
        {
          "indexed": true,
          "internalType": "contract Authority",
          "name": "newAuthority",
          "type": "address"
        }
      ],
      "name": "AuthorityUpdated",
      "type": "event"
    },
    {
      "anonymous": false,
      "inputs": [
        {
          "indexed": true,
          "internalType": "address",
          "name": "user",
          "type": "address"
        },
        {
          "indexed": true,
          "internalType": "address",
          "name": "newOwner",
          "type": "address"
        }
      ],
      "name": "OwnerUpdated",
      "type": "event"
    },
    {
      "anonymous": false,
      "inputs": [
        {
          "indexed": true,
          "internalType": "address",
          "name": "target",
          "type": "address"
        },
        {
          "indexed": true,
          "internalType": "bytes4",
          "name": "functionSig",
          "type": "bytes4"
        },
        {
          "indexed": false,
          "internalType": "bool",
          "name": "enabled",
          "type": "bool"
        }
      ],
      "name": "PublicCapabilityUpdated",
      "type": "event"
    },
    {
      "anonymous": false,
      "inputs": [
        {
          "indexed": true,
          "internalType": "uint8",
          "name": "role",
          "type": "uint8"
        },
        {
          "indexed": true,
          "internalType": "address",
          "name": "target",
          "type": "address"
        },
        {
          "indexed": true,
          "internalType": "bytes4",
          "name": "functionSig",
          "type": "bytes4"
        },
        {
          "indexed": false,
          "internalType": "bool",
          "name": "enabled",
          "type": "bool"
        }
      ],
      "name": "RoleCapabilityUpdated",
      "type": "event"
    },
    {
      "anonymous": false,
      "inputs": [
        {
          "indexed": true,
          "internalType": "address",
          "name": "user",
          "type": "address"
        },
        {
          "indexed": true,
          "internalType": "uint8",
          "name": "role",
          "type": "uint8"
        },
        {
          "indexed": false,
          "internalType": "bool",
          "name": "enabled",
          "type": "bool"
        }
      ],
      "name": "UserRoleUpdated",
      "type": "event"
    },
    {
      "inputs": [],
      "name": "authority",
      "outputs": [
        {
          "internalType": "contract Authority",
          "name": "",
          "type": "address"
        }
      ],
      "stateMutability": "view",
      "type": "function"
    },
    {
      "inputs": [
        {
          "internalType": "address",
          "name": "user",
          "type": "address"
        },
        {
          "internalType": "address",
          "name": "target",
          "type": "address"
        },
        {
          "internalType": "bytes4",
          "name": "functionSig",
          "type": "bytes4"
        }
      ],
      "name": "canCall",
      "outputs": [
        {
          "internalType": "bool",
          "name": "",
          "type": "bool"
        }
      ],
      "stateMutability": "view",
      "type": "function"
    },
    {
      "inputs": [
        {
          "internalType": "uint8",
          "name": "role",
          "type": "uint8"
        },
        {
          "internalType": "address",
          "name": "target",
          "type": "address"
        },
        {
          "internalType": "bytes4",
          "name": "functionSig",
          "type": "bytes4"
        }
      ],
      "name": "doesRoleHaveCapability",
      "outputs": [
        {
          "internalType": "bool",
          "name": "",
          "type": "bool"
        }
      ],
      "stateMutability": "view",
      "type": "function"
    },
    {
      "inputs": [
        {
          "internalType": "address",
          "name": "user",
          "type": "address"
        },
        {
          "internalType": "uint8",
          "name": "role",
          "type": "uint8"
        }
      ],
      "name": "doesUserHaveRole",
      "outputs": [
        {
          "internalType": "bool",
          "name": "",
          "type": "bool"
        }
      ],
      "stateMutability": "view",
      "type": "function"
    },
    {
      "inputs": [
        {
          "internalType": "address",
          "name": "",
          "type": "address"
        },
        {
          "internalType": "bytes4",
          "name": "",
          "type": "bytes4"
        }
      ],
      "name": "getRolesWithCapability",
      "outputs": [
        {
          "internalType": "bytes32",
          "name": "",
          "type": "bytes32"
        }
      ],
      "stateMutability": "view",
      "type": "function"
    },
    {
      "inputs": [
        {
          "internalType": "address",
          "name": "",
          "type": "address"
        }
      ],
      "name": "getUserRoles",
      "outputs": [
        {
          "internalType": "bytes32",
          "name": "",
          "type": "bytes32"
        }
      ],
      "stateMutability": "view",
      "type": "function"
    },
    {
      "inputs": [
        {
          "internalType": "address",
          "name": "",
          "type": "address"
        },
        {
          "internalType": "bytes4",
          "name": "",
          "type": "bytes4"
        }
      ],
      "name": "isCapabilityPublic",
      "outputs": [
        {
          "internalType": "bool",
          "name": "",
          "type": "bool"
        }
      ],
      "stateMutability": "view",
      "type": "function"
    },
    {
      "inputs": [],
      "name": "owner",
      "outputs": [
        {
          "internalType": "address",
          "name": "",
          "type": "address"
        }
      ],
      "stateMutability": "view",
      "type": "function"
    },
    {
      "inputs": [
        {
          "internalType": "contract Authority",
          "name": "newAuthority",
          "type": "address"
        }
      ],
      "name": "setAuthority",
      "outputs": [],
      "stateMutability": "nonpayable",
      "type": "function"
    },
    {
      "inputs": [
        {
          "internalType": "address",
          "name": "newOwner",
          "type": "address"
        }
      ],
      "name": "setOwner",
      "outputs": [],
      "stateMutability": "nonpayable",
      "type": "function"
    },
    {
      "inputs": [
        {
          "internalType": "address",
          "name": "target",
          "type": "address"
        },
        {
          "internalType": "bytes4",
          "name": "functionSig",
          "type": "bytes4"
        },
        {
          "internalType": "bool",
          "name": "enabled",
          "type": "bool"
        }
      ],
      "name": "setPublicCapability",
      "outputs": [],
      "stateMutability": "nonpayable",
      "type": "function"
    },
    {
      "inputs": [
        {
          "internalType": "uint8",
          "name": "role",
          "type": "uint8"
        },
        {
          "internalType": "address",
          "name": "target",
          "type": "address"
        },
        {
          "internalType": "bytes4",
          "name": "functionSig",
          "type": "bytes4"
        },
        {
          "internalType": "bool",
          "name": "enabled",
          "type": "bool"
        }
      ],
      "name": "setRoleCapability",
      "outputs": [],
      "stateMutability": "nonpayable",
      "type": "function"
    },
    {
      "inputs": [
        {
          "internalType": "address",
          "name": "user",
          "type": "address"
        },
        {
          "internalType": "uint8",
          "name": "role",
          "type": "uint8"
        },
        {
          "internalType": "bool",
          "name": "enabled",
          "type": "bool"
        }
      ],
      "name": "setUserRole",
      "outputs": [],
      "stateMutability": "nonpayable",
      "type": "function"
    }
  ],
  "bytecode": {
    "object": "0x60806040523480156200001157600080fd5b50604051620012a9380380620012a9833981016040819052620000349162000731565b8160006200004e82826200006460201b620007161760201c565b506200005c905081620000f7565b505062000794565b600080546001600160a01b03199081166001600160a01b0385811691821784556001805490931690851617909155604051909133917f8292fce18fa69edf4db7b94ea2e58241df0ae57f97e0a6c9b29067028bf92d769190a36040516001600160a01b0382169033907fa3396fd7f6e0a21b50e5089d2da70d5ac0a3bbbd1f617a93f134b7638998019890600090a35050565b6040805180820190915260128152717365745369676e657228616464726573732960701b602090910152620001506001827f6c19e78356e125aebdcfec8378fd6bdb3054637fe31d45dc274ed7d3a756f6438262000522565b60408051808201909152601a81527f73657450726f66696c6541646472657373286164647265737329000000000000602090910152620001b46001827f59e78460117d7c28b93f87cb9a4d00487e1b54fbb73e42c0b8d32336491440658262000522565b60408051808201909152601681527f736574426f784164647265737328616464726573732900000000000000000000602090910152620002186001827fc254cc7b12336bc4d9a00933db0d7699e3357ae763186f64632bd9f310fb032b8262000522565b60408051808201909152601b81527f7365744665654279546965722875696e74382c75696e743235362900000000006020909101526200027c6001827f480642acd209d37538b504a4f3aff1e2e6a0ad2ae05c66b4fd428f25c2b1128c8262000522565b60408051808201909152601981527f776974686472617728616464726573732c75696e743235362900000000000000602090910152620002e06001827ff3fef3a3f44f9c277339b67d54f015748bd8d6b77a985b0ab6e71126b018c34a8262000522565b60408051808201909152601981527f736574426f784769766561776179456e64656428626f6f6c2900000000000000602090910152620003446001827f70446a6b9747279096444d50f816d5c15b8910756831710af8d3c7b73595049d8262000522565b60408051808201909152600f81526e73657453746174652875696e74382960881b6020909101526200039a6001827f56de96db8465c027d911b03ae7131e7c8fbbd9e7e787f85ad9400030cacaf5bd8262000522565b60408051808201909152601e81527f616c6c6f775375627363726962654d7728616464726573732c626f6f6c290000602090910152620003fe6001827f15fcca16a15ac8ce419306a56c8e906ca78f33f51eda4930b869bae288d241e08262000522565b60408051808201909152601781527f7570677261646550726f66696c65286164647265737329000000000000000000602090910152620004626001827f5afd1f940647fbbf3d36df0114e4440f6151be8d0c33ba0b6b9b24f1d8ce1d9d8262000522565b60408051808201909152601381527f75706772616465426f7828616464726573732900000000000000000000000000602090910152620004c66001827f3dd4d0316e8a176885ca85ac39c4241a1de69eee08a98ad1dd632b8f81a9be148262000522565b60408051808201909152601281527175706772616465546f28616464726573732960701b6020909101526200051f6001827f3659cfe672549963da205df855ebfb8672cda4801e0255183bd6a6f536855df78262000522565b50565b6200053a336001600160e01b03196000351662000656565b6200057a5760405162461bcd60e51b815260206004820152600c60248201526b15539055551213d49256915160a21b604482015260640160405180910390fd5b8015620005c0576001600160a01b03831660009081526004602090815260408083206001600160e01b03198616845290915290208054600160ff87161b179055620005fb565b6001600160a01b03831660009081526004602090815260408083206001600160e01b03198616845290915290208054600160ff87161b191690555b816001600160e01b031916836001600160a01b03168560ff167fa52ea92e6e955aa8ac66420b86350f7139959adfcc7e6a14eee1bd116d09860e8460405162000648911515815260200190565b60405180910390a450505050565b6001546000906001600160a01b03168015801590620006f3575060405163b700961360e01b81526001600160a01b0385811660048301523060248301526001600160e01b03198516604483015282169063b700961390606401602060405180830381865afa158015620006cd573d6000803e3d6000fd5b505050506040513d601f19601f82011682018060405250810190620006f3919062000769565b806200070c57506000546001600160a01b038581169116145b949350505050565b80516001600160a01b03811681146200072c57600080fd5b919050565b600080604083850312156200074557600080fd5b620007508362000714565b9150620007606020840162000714565b90509250929050565b6000602082840312156200077c57600080fd5b815180151581146200078d57600080fd5b9392505050565b610b0580620007a46000396000f3fe608060405234801561001057600080fd5b50600436106100cf5760003560e01c80637d40583d1161008c578063b700961311610066578063b700961314610236578063bf7e214f14610249578063c6b0263e1461025c578063ea7ca2761461026f57600080fd5b80637d40583d146101ab5780638da5cb5b146101be578063b4bad06a146101e957600080fd5b806306a36aee146100d457806313af4035146101075780632f47571f1461011c57806367aff4841461015a5780637917b7941461016d5780637a9e5e4b14610198575b600080fd5b6100f46100e236600461086a565b60026020526000908152604090205481565b6040519081526020015b60405180910390f35b61011a61011536600461086a565b6102a6565b005b61014a61012a3660046108ab565b600360209081526000928352604080842090915290825290205460ff1681565b60405190151581526020016100fe565b61011a6101683660046108ff565b61032c565b6100f461017b3660046108ab565b600460209081526000928352604080842090915290825290205481565b61011a6101a636600461086a565b610401565b61011a6101b9366004610948565b6104eb565b6000546101d1906001600160a01b031681565b6040516001600160a01b0390911681526020016100fe565b61014a6101f73660046109a0565b6001600160a01b039190911660009081526004602090815260408083206001600160e01b031990941683529290522054600160ff929092161c16151590565b61014a6102443660046109e5565b6105f6565b6001546101d1906001600160a01b031681565b61011a61026a366004610a05565b610675565b61014a61027d366004610a33565b6001600160a01b0391909116600090815260026020526040902054600160ff9092161c16151590565b6102bc336000356001600160e01b0319166107a9565b6102e15760405162461bcd60e51b81526004016102d890610a5f565b60405180910390fd5b600080546001600160a01b0319166001600160a01b0383169081178255604051909133917f8292fce18fa69edf4db7b94ea2e58241df0ae57f97e0a6c9b29067028bf92d769190a350565b610342336000356001600160e01b0319166107a9565b61035e5760405162461bcd60e51b81526004016102d890610a5f565b801561038d576001600160a01b03831660009081526002602052604090208054600160ff85161b1790556103b3565b6001600160a01b03831660009081526002602052604090208054600160ff85161b191690555b8160ff16836001600160a01b03167f4c9bdd0c8e073eb5eda2250b18d8e5121ff27b62064fbeeeed4869bb99bc5bf2836040516103f4911515815260200190565b60405180910390a3505050565b6000546001600160a01b0316331480610496575060015460405163b700961360e01b81526001600160a01b039091169063b70096139061045590339030906001600160e01b03196000351690600401610a85565b602060405180830381865afa158015610472573d6000803e3d6000fd5b505050506040513d601f19601f820116820180604052508101906104969190610ab2565b61049f57600080fd5b600180546001600160a01b0319166001600160a01b03831690811790915560405133907fa3396fd7f6e0a21b50e5089d2da70d5ac0a3bbbd1f617a93f134b7638998019890600090a350565b610501336000356001600160e01b0319166107a9565b61051d5760405162461bcd60e51b81526004016102d890610a5f565b8015610561576001600160a01b03831660009081526004602090815260408083206001600160e01b03198616845290915290208054600160ff87161b17905561059c565b6001600160a01b03831660009081526004602090815260408083206001600160e01b03198616845290915290208054600160ff87161b191690555b816001600160e01b031916836001600160a01b03168560ff167fa52ea92e6e955aa8ac66420b86350f7139959adfcc7e6a14eee1bd116d09860e846040516105e8911515815260200190565b60405180910390a450505050565b6001600160a01b03821660009081526003602090815260408083206001600160e01b03198516845290915281205460ff168061066d57506001600160a01b0380841660009081526004602090815260408083206001600160e01b031987168452825280832054938816835260029091529020541615155b949350505050565b61068b336000356001600160e01b0319166107a9565b6106a75760405162461bcd60e51b81526004016102d890610a5f565b6001600160a01b03831660008181526003602090815260408083206001600160e01b0319871680855290835292819020805460ff191686151590811790915590519081529192917f950a343f5d10445e82a71036d3f4fb3016180a25805141932543b83e2078a93e91016103f4565b600080546001600160a01b03199081166001600160a01b0385811691821784556001805490931690851617909155604051909133917f8292fce18fa69edf4db7b94ea2e58241df0ae57f97e0a6c9b29067028bf92d769190a36040516001600160a01b0382169033907fa3396fd7f6e0a21b50e5089d2da70d5ac0a3bbbd1f617a93f134b7638998019890600090a35050565b6001546000906001600160a01b03168015801590610833575060405163b700961360e01b81526001600160a01b0382169063b7009613906107f290879030908890600401610a85565b602060405180830381865afa15801561080f573d6000803e3d6000fd5b505050506040513d601f19601f820116820180604052508101906108339190610ab2565b8061066d57506000546001600160a01b03858116911614949350505050565b6001600160a01b038116811461086757600080fd5b50565b60006020828403121561087c57600080fd5b813561088781610852565b9392505050565b80356001600160e01b0319811681146108a657600080fd5b919050565b600080604083850312156108be57600080fd5b82356108c981610852565b91506108d76020840161088e565b90509250929050565b803560ff811681146108a657600080fd5b801515811461086757600080fd5b60008060006060848603121561091457600080fd5b833561091f81610852565b925061092d602085016108e0565b9150604084013561093d816108f1565b809150509250925092565b6000806000806080858703121561095e57600080fd5b610967856108e0565b9350602085013561097781610852565b92506109856040860161088e565b91506060850135610995816108f1565b939692955090935050565b6000806000606084860312156109b557600080fd5b6109be846108e0565b925060208401356109ce81610852565b91506109dc6040850161088e565b90509250925092565b6000806000606084860312156109fa57600080fd5b83356109be81610852565b600080600060608486031215610a1a57600080fd5b8335610a2581610852565b925061092d6020850161088e565b60008060408385031215610a4657600080fd5b8235610a5181610852565b91506108d7602084016108e0565b6020808252600c908201526b15539055551213d49256915160a21b604082015260600190565b6001600160a01b0393841681529190921660208201526001600160e01b0319909116604082015260600190565b600060208284031215610ac457600080fd5b8151610887816108f156fea2646970667358221220d7b9d6d6f8ba2f73bdaaddfb87084e4a569865a58584db0999fffeb95530d37664736f6c634300080e0033",
    "linkReferences": {}
  },
  "methodIdentifiers": {
    "authority()": "bf7e214f",
    "canCall(address,address,bytes4)": "b7009613",
    "doesRoleHaveCapability(uint8,address,bytes4)": "b4bad06a",
    "doesUserHaveRole(address,uint8)": "ea7ca276",
    "getRolesWithCapability(address,bytes4)": "7917b794",
    "getUserRoles(address)": "06a36aee",
    "isCapabilityPublic(address,bytes4)": "2f47571f",
    "owner()": "8da5cb5b",
    "setAuthority(address)": "7a9e5e4b",
    "setOwner(address)": "13af4035",
    "setPublicCapability(address,bytes4,bool)": "c6b0263e",
    "setRoleCapability(uint8,address,bytes4,bool)": "7d40583d",
    "setUserRole(address,uint8,bool)": "67aff484"
  },
  "id": 21
}