{
  "abi": [
    {
      "inputs": [
        {
          "internalType": "address",
          "name": "engine",
          "type": "address"
        },
        {
          "internalType": "address",
          "name": "profileNFT",
          "type": "address"
        }
      ],
      "stateMutability": "nonpayable",
      "type": "constructor"
    },
    {
      "anonymous": false,
      "inputs": [
        {
          "indexed": true,
          "internalType": "address",
          "name": "owner",
          "type": "address"
        },
        {
          "indexed": true,
          "internalType": "address",
          "name": "spender",
          "type": "address"
        },
        {
          "indexed": true,
          "internalType": "uint256",
          "name": "id",
          "type": "uint256"
        }
      ],
      "name": "Approval",
      "type": "event"
    },
    {
      "anonymous": false,
      "inputs": [
        {
          "indexed": true,
          "internalType": "address",
          "name": "owner",
          "type": "address"
        },
        {
          "indexed": true,
          "internalType": "address",
          "name": "operator",
          "type": "address"
        },
        {
          "indexed": false,
          "internalType": "bool",
          "name": "approved",
          "type": "bool"
        }
      ],
      "name": "ApprovalForAll",
      "type": "event"
    },
    {
      "anonymous": false,
      "inputs": [
        {
          "indexed": true,
          "internalType": "address",
          "name": "from",
          "type": "address"
        },
        {
          "indexed": true,
          "internalType": "address",
          "name": "to",
          "type": "address"
        },
        {
          "indexed": true,
          "internalType": "uint256",
          "name": "id",
          "type": "uint256"
        }
      ],
      "name": "Transfer",
      "type": "event"
    },
    {
      "inputs": [],
      "name": "ENGINE",
      "outputs": [
        {
          "internalType": "address",
          "name": "",
          "type": "address"
        }
      ],
      "stateMutability": "view",
      "type": "function"
    },
    {
      "inputs": [],
      "name": "PROFILE_NFT",
      "outputs": [
        {
          "internalType": "address",
          "name": "",
          "type": "address"
        }
      ],
      "stateMutability": "view",
      "type": "function"
    },
    {
      "inputs": [
        {
          "internalType": "address",
          "name": "spender",
          "type": "address"
        },
        {
          "internalType": "uint256",
          "name": "id",
          "type": "uint256"
        }
      ],
      "name": "approve",
      "outputs": [],
      "stateMutability": "nonpayable",
      "type": "function"
    },
    {
      "inputs": [
        {
          "internalType": "address",
          "name": "owner",
          "type": "address"
        }
      ],
      "name": "balanceOf",
      "outputs": [
        {
          "internalType": "uint256",
          "name": "",
          "type": "uint256"
        }
      ],
      "stateMutability": "view",
      "type": "function"
    },
    {
      "inputs": [
        {
          "internalType": "uint256",
          "name": "",
          "type": "uint256"
        }
      ],
      "name": "getApproved",
      "outputs": [
        {
          "internalType": "address",
          "name": "",
          "type": "address"
        }
      ],
      "stateMutability": "view",
      "type": "function"
    },
    {
      "inputs": [
        {
          "internalType": "uint256",
          "name": "profileId",
          "type": "uint256"
        }
      ],
      "name": "initialize",
      "outputs": [],
      "stateMutability": "nonpayable",
      "type": "function"
    },
    {
      "inputs": [
        {
          "internalType": "address",
          "name": "",
          "type": "address"
        },
        {
          "internalType": "address",
          "name": "",
          "type": "address"
        }
      ],
      "name": "isApprovedForAll",
      "outputs": [
        {
          "internalType": "bool",
          "name": "",
          "type": "bool"
        }
      ],
      "stateMutability": "view",
      "type": "function"
    },
    {
      "inputs": [
        {
          "internalType": "address",
          "name": "to",
          "type": "address"
        }
      ],
      "name": "mint",
      "outputs": [
        {
          "internalType": "uint256",
          "name": "",
          "type": "uint256"
        }
      ],
      "stateMutability": "nonpayable",
      "type": "function"
    },
    {
      "inputs": [],
      "name": "name",
      "outputs": [
        {
          "internalType": "string",
          "name": "",
          "type": "string"
        }
      ],
      "stateMutability": "view",
      "type": "function"
    },
    {
      "inputs": [
        {
          "internalType": "uint256",
          "name": "id",
          "type": "uint256"
        }
      ],
      "name": "ownerOf",
      "outputs": [
        {
          "internalType": "address",
          "name": "owner",
          "type": "address"
        }
      ],
      "stateMutability": "view",
      "type": "function"
    },
    {
      "inputs": [
        {
          "internalType": "address",
          "name": "from",
          "type": "address"
        },
        {
          "internalType": "address",
          "name": "to",
          "type": "address"
        },
        {
          "internalType": "uint256",
          "name": "id",
          "type": "uint256"
        }
      ],
      "name": "safeTransferFrom",
      "outputs": [],
      "stateMutability": "nonpayable",
      "type": "function"
    },
    {
      "inputs": [
        {
          "internalType": "address",
          "name": "from",
          "type": "address"
        },
        {
          "internalType": "address",
          "name": "to",
          "type": "address"
        },
        {
          "internalType": "uint256",
          "name": "id",
          "type": "uint256"
        },
        {
          "internalType": "bytes",
          "name": "data",
          "type": "bytes"
        }
      ],
      "name": "safeTransferFrom",
      "outputs": [],
      "stateMutability": "nonpayable",
      "type": "function"
    },
    {
      "inputs": [
        {
          "internalType": "address",
          "name": "operator",
          "type": "address"
        },
        {
          "internalType": "bool",
          "name": "approved",
          "type": "bool"
        }
      ],
      "name": "setApprovalForAll",
      "outputs": [],
      "stateMutability": "nonpayable",
      "type": "function"
    },
    {
      "inputs": [
        {
          "internalType": "bytes4",
          "name": "interfaceId",
          "type": "bytes4"
        }
      ],
      "name": "supportsInterface",
      "outputs": [
        {
          "internalType": "bool",
          "name": "",
          "type": "bool"
        }
      ],
      "stateMutability": "view",
      "type": "function"
    },
    {
      "inputs": [],
      "name": "symbol",
      "outputs": [
        {
          "internalType": "string",
          "name": "",
          "type": "string"
        }
      ],
      "stateMutability": "view",
      "type": "function"
    },
    {
      "inputs": [
        {
          "internalType": "uint256",
          "name": "tokenId",
          "type": "uint256"
        }
      ],
      "name": "tokenURI",
      "outputs": [
        {
          "internalType": "string",
          "name": "",
          "type": "string"
        }
      ],
      "stateMutability": "view",
      "type": "function"
    },
    {
      "inputs": [],
      "name": "totalSupply",
      "outputs": [
        {
          "internalType": "uint256",
          "name": "",
          "type": "uint256"
        }
      ],
      "stateMutability": "view",
      "type": "function"
    },
    {
      "inputs": [
        {
          "internalType": "address",
          "name": "",
          "type": "address"
        },
        {
          "internalType": "address",
          "name": "",
          "type": "address"
        },
        {
          "internalType": "uint256",
          "name": "",
          "type": "uint256"
        }
      ],
      "name": "transferFrom",
      "outputs": [],
      "stateMutability": "pure",
      "type": "function"
    },
    {
      "inputs": [],
      "name": "version",
      "outputs": [
        {
          "internalType": "uint256",
          "name": "",
          "type": "uint256"
        }
      ],
      "stateMutability": "pure",
      "type": "function"
    }
  ],
  "bytecode": {
    "object": "0x60c060405260006007553480156200001657600080fd5b506040516200147c3803806200147c8339810160408190526200003991620001b8565b6001600160a01b038216620000955760405162461bcd60e51b815260206004820152601a60248201527f456e67696e6520616464726573732063616e6e6f74206265203000000000000060448201526064015b60405180910390fd5b6001600160a01b038116620000ed5760405162461bcd60e51b815260206004820152601f60248201527f50726f66696c65204e465420616464726573732063616e6e6f7420626520300060448201526064016200008c565b6001600160a01b03808316608052811660a0526200010a62000112565b5050620001f0565b600654610100900460ff16156200017c5760405162461bcd60e51b815260206004820152602760248201527f496e697469616c697a61626c653a20636f6e747261637420697320696e697469604482015266616c697a696e6760c81b60648201526084016200008c565b60065460ff908116101562000199576006805460ff191660ff1790555b565b80516001600160a01b0381168114620001b357600080fd5b919050565b60008060408385031215620001cc57600080fd5b620001d7836200019b565b9150620001e7602084016200019b565b90509250929050565b60805160a05161124a620002326000396000818161029e0152818161035901526107a10152600081816101f6015281816106c101526109e3015261124a6000f3fe608060405234801561001057600080fd5b50600436106101215760003560e01c80636352211e116100ad578063b88d4fde11610071578063b88d4fde14610273578063c87b56dd14610286578063da85843014610299578063e985e9c5146102c0578063fe4b84df146102ee57600080fd5b80636352211e1461021f5780636a6278421461023257806370a082311461024557806395d89b4114610258578063a22cb4651461026057600080fd5b806318160ddd116100f457806318160ddd146101b957806323b872dd146101cb57806342842e0e146101de5780634785e8d4146101f157806354fd4d501461021857600080fd5b806301ffc9a71461012657806306fdde031461014e578063081812fc14610163578063095ea7b3146101a4575b600080fd5b610139610134366004610e07565b610301565b60405190151581526020015b60405180910390f35b610156610353565b6040516101459190610e5b565b61018c610171366004610e8e565b6004602052600090815260409020546001600160a01b031681565b6040516001600160a01b039091168152602001610145565b6101b76101b2366004610ebe565b610439565b005b6007545b604051908152602001610145565b6101b76101d9366004610ee8565b610520565b6101b76101ec366004610ee8565b610568565b61018c7f000000000000000000000000000000000000000000000000000000000000000081565b60016101bd565b61018c61022d366004610e8e565b61065d565b6101bd610240366004610f24565b6106b4565b6101bd610253366004610f24565b610738565b61015661079b565b6101b761026e366004610f3f565b61086d565b6101b7610281366004610f7b565b6108d9565b610156610294366004610e8e565b6109be565b61018c7f000000000000000000000000000000000000000000000000000000000000000081565b6101396102ce366004611016565b600560209081526000928352604080842090915290825290205460ff1681565b6101b76102fc366004610e8e565b610a5a565b60006301ffc9a760e01b6001600160e01b03198316148061033257506380ac58cd60e01b6001600160e01b03198316145b8061034d5750635b5e139f60e01b6001600160e01b03198316145b92915050565b606060007f00000000000000000000000000000000000000000000000000000000000000006001600160a01b0316632307c9876008546040518263ffffffff1660e01b81526004016103a791815260200190565b600060405180830381865afa1580156103c4573d6000803e3d6000fd5b505050506040513d6000823e601f3d908101601f191682016040526103ec919081019061105f565b9050806040518060400160405280600b81526020016a2fb9bab139b1b934b132b960a91b81525060405160200161042492919061110c565b60405160208183030381529060405291505090565b6000818152600260205260409020546001600160a01b03163381148061048257506001600160a01b038116600090815260056020908152604080832033845290915290205460ff165b6104c45760405162461bcd60e51b815260206004820152600e60248201526d1393d517d055551213d49256915160921b60448201526064015b60405180910390fd5b60008281526004602052604080822080546001600160a01b0319166001600160a01b0387811691821790925591518593918516917f8c5be1e5ebec7d5bd14f71427d1e84f3dd0314c0f7b2291e5b200ac8c7c3b92591a4505050565b60405162461bcd60e51b815260206004820152601760248201527f5472616e73666572206973206e6f7420616c6c6f77656400000000000000000060448201526064016104bb565b610573838383610520565b6001600160a01b0382163b1561065857604051630a85bd0160e11b8082523360048301526001600160a01b03858116602484015260448301849052608060648401526000608484015290919084169063150b7a029060a4016020604051808303816000875af11580156105ea573d6000803e3d6000fd5b505050506040513d601f19601f8201168201806040525081019061060e919061113b565b6001600160e01b031916146106585760405162461bcd60e51b815260206004820152601060248201526f155394d0519157d49150d2541251539560821b60448201526064016104bb565b505050565b6000818152600260205260409020546001600160a01b0316806106af5760405162461bcd60e51b815260206004820152600a6024820152691393d517d3525395115160b21b60448201526064016104bb565b919050565b6000336001600160a01b037f000000000000000000000000000000000000000000000000000000000000000016146107275760405162461bcd60e51b815260206004820152601660248201527513db9b1e48115b99da5b994818dbdd5b19081b5a5b9d60521b60448201526064016104bb565b61073082610b04565b505060075490565b60006001600160a01b03821661077f5760405162461bcd60e51b815260206004820152600c60248201526b5a45524f5f4144445245535360a01b60448201526064016104bb565b506001600160a01b031660009081526003602052604090205490565b606060007f00000000000000000000000000000000000000000000000000000000000000006001600160a01b0316632307c9876008546040518263ffffffff1660e01b81526004016107ef91815260200190565b600060405180830381865afa15801561080c573d6000803e3d6000fd5b505050506040513d6000823e601f3d908101601f19168201604052610834919081019061105f565b905061083f81610b24565b604051806040016040528060048152602001632fa9aaa160e11b81525060405160200161042492919061110c565b3360008181526005602090815260408083206001600160a01b03871680855290835292819020805460ff191686151590811790915590519081529192917f17307eab39ab6107e8899845ad3d59bd9653f200f220920489ca2b5937696c31910160405180910390a35050565b6108e4858585610520565b6001600160a01b0384163b156109b757604051630a85bd0160e11b808252906001600160a01b0386169063150b7a029061092a9033908a90899089908990600401611158565b6020604051808303816000875af1158015610949573d6000803e3d6000fd5b505050506040513d601f19601f8201168201806040525081019061096d919061113b565b6001600160e01b031916146109b75760405162461bcd60e51b815260206004820152601060248201526f155394d0519157d49150d2541251539560821b60448201526064016104bb565b5050505050565b60606109c982610c95565b600854604051630607829f60e31b815260048101919091527f00000000000000000000000000000000000000000000000000000000000000006001600160a01b03169063303c14f890602401600060405180830381865afa158015610a32573d6000803e3d6000fd5b505050506040513d6000823e601f3d908101601f1916820160405261034d919081019061105f565b600654610100900460ff1615808015610a7a5750600654600160ff909116105b610ac65760405162461bcd60e51b815260206004820152601c60248201527f436f6e747261637420616c726561647920696e697469616c697a65640000000060448201526064016104bb565b6006805460ff191660011790558015610ae9576006805461ff0019166101001790555b60088290558015610b00576006805461ff00191690555b5050565b610b2181600760008154610b17906111c2565b9182905550610ce6565b50565b606060008290506000815167ffffffffffffffff811115610b4757610b47611049565b6040519080825280601f01601f191660200182016040528015610b71576020820181803683370190505b50905060005b8251811015610c8d57606160f81b838281518110610b9757610b976111db565b01602001516001600160f81b03191610801590610bd85750603d60f91b838281518110610bc657610bc66111db565b01602001516001600160f81b03191611155b15610c34576020838281518110610bf157610bf16111db565b0160200151610c03919060f81c6111f1565b60f81b828281518110610c1857610c186111db565b60200101906001600160f81b031916908160001a905350610c7b565b828181518110610c4657610c466111db565b602001015160f81c60f81b828281518110610c6357610c636111db565b60200101906001600160f81b031916908160001a9053505b80610c85816111c2565b915050610b77565b509392505050565b6000818152600260205260409020546001600160a01b0316610b215760405162461bcd60e51b815260206004820152600a6024820152691393d517d3525395115160b21b60448201526064016104bb565b6001600160a01b038216610d305760405162461bcd60e51b81526020600482015260116024820152701253959053125117d49150d25412515395607a1b60448201526064016104bb565b6000818152600260205260409020546001600160a01b031615610d865760405162461bcd60e51b815260206004820152600e60248201526d1053149150511657d3525395115160921b60448201526064016104bb565b6001600160a01b038216600081815260036020908152604080832080546001019055848352600290915280822080546001600160a01b0319168417905551839291907fddf252ad1be2c89b69c2b068fc378daa952ba7f163c4a11628f55a4df523b3ef908290a45050565b6001600160e01b031981168114610b2157600080fd5b600060208284031215610e1957600080fd5b8135610e2481610df1565b9392505050565b60005b83811015610e46578181015183820152602001610e2e565b83811115610e55576000848401525b50505050565b6020815260008251806020840152610e7a816040850160208701610e2b565b601f01601f19169190910160400192915050565b600060208284031215610ea057600080fd5b5035919050565b80356001600160a01b03811681146106af57600080fd5b60008060408385031215610ed157600080fd5b610eda83610ea7565b946020939093013593505050565b600080600060608486031215610efd57600080fd5b610f0684610ea7565b9250610f1460208501610ea7565b9150604084013590509250925092565b600060208284031215610f3657600080fd5b610e2482610ea7565b60008060408385031215610f5257600080fd5b610f5b83610ea7565b915060208301358015158114610f7057600080fd5b809150509250929050565b600080600080600060808688031215610f9357600080fd5b610f9c86610ea7565b9450610faa60208701610ea7565b935060408601359250606086013567ffffffffffffffff80821115610fce57600080fd5b818801915088601f830112610fe257600080fd5b813581811115610ff157600080fd5b89602082850101111561100357600080fd5b9699959850939650602001949392505050565b6000806040838503121561102957600080fd5b61103283610ea7565b915061104060208401610ea7565b90509250929050565b634e487b7160e01b600052604160045260246000fd5b60006020828403121561107157600080fd5b815167ffffffffffffffff8082111561108957600080fd5b818401915084601f83011261109d57600080fd5b8151818111156110af576110af611049565b604051601f8201601f19908116603f011681019083821181831017156110d7576110d7611049565b816040528281528760208487010111156110f057600080fd5b611101836020830160208801610e2b565b979650505050505050565b6000835161111e818460208801610e2b565b835190830190611132818360208801610e2b565b01949350505050565b60006020828403121561114d57600080fd5b8151610e2481610df1565b6001600160a01b038681168252851660208201526040810184905260806060820181905281018290526000828460a0840137600060a0848401015260a0601f19601f85011683010190509695505050505050565b634e487b7160e01b600052601160045260246000fd5b6000600182016111d4576111d46111ac565b5060010190565b634e487b7160e01b600052603260045260246000fd5b600060ff821660ff84168082101561120b5761120b6111ac565b9003939250505056fea26469706673582212207e8de96612cd655d00a88bcca960e3d6cbbf28f536704aab1df8e779b1aab5f164736f6c634300080e0033",
    "linkReferences": {}
  },
  "methodIdentifiers": {
    "ENGINE()": "4785e8d4",
    "PROFILE_NFT()": "da858430",
    "approve(address,uint256)": "095ea7b3",
    "balanceOf(address)": "70a08231",
    "getApproved(uint256)": "081812fc",
    "initialize(uint256)": "fe4b84df",
    "isApprovedForAll(address,address)": "e985e9c5",
    "mint(address)": "6a627842",
    "name()": "06fdde03",
    "ownerOf(uint256)": "6352211e",
    "safeTransferFrom(address,address,uint256)": "42842e0e",
    "safeTransferFrom(address,address,uint256,bytes)": "b88d4fde",
    "setApprovalForAll(address,bool)": "a22cb465",
    "supportsInterface(bytes4)": "01ffc9a7",
    "symbol()": "95d89b41",
    "tokenURI(uint256)": "c87b56dd",
    "totalSupply()": "18160ddd",
    "transferFrom(address,address,uint256)": "23b872dd",
    "version()": "54fd4d50"
  },
  "id": 21
}