{
  "abi": [
    {
      "inputs": [
        {
          "internalType": "address",
          "name": "implementation_",
          "type": "address"
        },
        {
          "internalType": "address",
          "name": "engine",
          "type": "address"
        }
      ],
      "stateMutability": "nonpayable",
      "type": "constructor"
    },
    {
      "anonymous": false,
      "inputs": [
        {
          "indexed": true,
          "internalType": "address",
          "name": "implementation",
          "type": "address"
        }
      ],
      "name": "Upgraded",
      "type": "event"
    },
    {
      "inputs": [],
      "name": "ENGINE",
      "outputs": [
        {
          "internalType": "address",
          "name": "",
          "type": "address"
        }
      ],
      "stateMutability": "view",
      "type": "function"
    },
    {
      "inputs": [],
      "name": "implementation",
      "outputs": [
        {
          "internalType": "address",
          "name": "",
          "type": "address"
        }
      ],
      "stateMutability": "view",
      "type": "function"
    },
    {
      "inputs": [
        {
          "internalType": "address",
          "name": "newImplementation",
          "type": "address"
        }
      ],
      "name": "upgradeTo",
      "outputs": [],
      "stateMutability": "nonpayable",
      "type": "function"
    }
  ],
  "bytecode": {
    "object": "0x60a060405234801561001057600080fd5b506040516103d73803806103d783398101604081905261002f91610120565b6100388261004a565b6001600160a01b031660805250610153565b61005d816100f560201b61015a1760201c565b6100d35760405162461bcd60e51b815260206004820152603360248201527f5570677261646561626c65426561636f6e3a20696d706c656d656e746174696f60448201527f6e206973206e6f74206120636f6e747261637400000000000000000000000000606482015260840160405180910390fd5b600080546001600160a01b0319166001600160a01b0392909216919091179055565b6001600160a01b03163b151590565b80516001600160a01b038116811461011b57600080fd5b919050565b6000806040838503121561013357600080fd5b61013c83610104565b915061014a60208401610104565b90509250929050565b608051610264610173600039600081816060015260ba01526102646000f3fe608060405234801561001057600080fd5b50600436106100415760003560e01c80633659cfe6146100465780634785e8d41461005b5780635c60da1b1461009e575b600080fd5b6100596100543660046101fe565b6100af565b005b6100827f000000000000000000000000000000000000000000000000000000000000000081565b6040516001600160a01b03909116815260200160405180910390f35b6000546001600160a01b0316610082565b336001600160a01b037f0000000000000000000000000000000000000000000000000000000000000000161461011a5760405162461bcd60e51b815260206004820152600b60248201526a4f6e6c7920456e67696e6560a81b60448201526064015b60405180910390fd5b61012381610169565b6040516001600160a01b038216907fbc7cd75a20ee27fd9adebab32041f755214dbc6bffa90cc0225b39da2e5c2d3b90600090a250565b6001600160a01b03163b151590565b6001600160a01b0381163b6101dc5760405162461bcd60e51b815260206004820152603360248201527f5570677261646561626c65426561636f6e3a20696d706c656d656e746174696f6044820152721b881a5cc81b9bdd08184818dbdb9d1c9858dd606a1b6064820152608401610111565b600080546001600160a01b0319166001600160a01b0392909216919091179055565b60006020828403121561021057600080fd5b81356001600160a01b038116811461022757600080fd5b939250505056fea26469706673582212206caaad9c2af7797aa8f7a4c76e8feb944c1fdf79f0fd4775a43de99564853a1c64736f6c634300080e0033",
    "linkReferences": {}
  },
  "methodIdentifiers": {
    "ENGINE()": "4785e8d4",
    "implementation()": "5c60da1b",
    "upgradeTo(address)": "3659cfe6"
  },
  "id": 39
}