{
  "abi": [
    {
      "inputs": [
        {
          "internalType": "address",
          "name": "_engine",
          "type": "address"
        }
      ],
      "stateMutability": "nonpayable",
      "type": "constructor"
    },
    {
      "anonymous": false,
      "inputs": [
        {
          "indexed": false,
          "internalType": "address",
          "name": "previousAdmin",
          "type": "address"
        },
        {
          "indexed": false,
          "internalType": "address",
          "name": "newAdmin",
          "type": "address"
        }
      ],
      "name": "AdminChanged",
      "type": "event"
    },
    {
      "anonymous": false,
      "inputs": [
        {
          "indexed": true,
          "internalType": "address",
          "name": "owner",
          "type": "address"
        },
        {
          "indexed": true,
          "internalType": "address",
          "name": "spender",
          "type": "address"
        },
        {
          "indexed": true,
          "internalType": "uint256",
          "name": "id",
          "type": "uint256"
        }
      ],
      "name": "Approval",
      "type": "event"
    },
    {
      "anonymous": false,
      "inputs": [
        {
          "indexed": true,
          "internalType": "address",
          "name": "owner",
          "type": "address"
        },
        {
          "indexed": true,
          "internalType": "address",
          "name": "operator",
          "type": "address"
        },
        {
          "indexed": false,
          "internalType": "bool",
          "name": "approved",
          "type": "bool"
        }
      ],
      "name": "ApprovalForAll",
      "type": "event"
    },
    {
      "anonymous": false,
      "inputs": [
        {
          "indexed": true,
          "internalType": "address",
          "name": "beacon",
          "type": "address"
        }
      ],
      "name": "BeaconUpgraded",
      "type": "event"
    },
    {
      "anonymous": false,
      "inputs": [
        {
          "indexed": true,
          "internalType": "address",
          "name": "from",
          "type": "address"
        },
        {
          "indexed": true,
          "internalType": "address",
          "name": "to",
          "type": "address"
        },
        {
          "indexed": true,
          "internalType": "uint256",
          "name": "id",
          "type": "uint256"
        }
      ],
      "name": "Transfer",
      "type": "event"
    },
    {
      "anonymous": false,
      "inputs": [
        {
          "indexed": true,
          "internalType": "address",
          "name": "implementation",
          "type": "address"
        }
      ],
      "name": "Upgraded",
      "type": "event"
    },
    {
      "inputs": [],
      "name": "ENGINE",
      "outputs": [
        {
          "internalType": "address",
          "name": "",
          "type": "address"
        }
      ],
      "stateMutability": "view",
      "type": "function"
    },
    {
      "inputs": [
        {
          "internalType": "address",
          "name": "spender",
          "type": "address"
        },
        {
          "internalType": "uint256",
          "name": "id",
          "type": "uint256"
        }
      ],
      "name": "approve",
      "outputs": [],
      "stateMutability": "nonpayable",
      "type": "function"
    },
    {
      "inputs": [
        {
          "internalType": "address",
          "name": "owner",
          "type": "address"
        }
      ],
      "name": "balanceOf",
      "outputs": [
        {
          "internalType": "uint256",
          "name": "",
          "type": "uint256"
        }
      ],
      "stateMutability": "view",
      "type": "function"
    },
    {
      "inputs": [
        {
          "internalType": "uint256",
          "name": "",
          "type": "uint256"
        }
      ],
      "name": "getApproved",
      "outputs": [
        {
          "internalType": "address",
          "name": "",
          "type": "address"
        }
      ],
      "stateMutability": "view",
      "type": "function"
    },
    {
      "inputs": [
        {
          "internalType": "string",
          "name": "_name",
          "type": "string"
        },
        {
          "internalType": "string",
          "name": "_symbol",
          "type": "string"
        }
      ],
      "name": "initialize",
      "outputs": [],
      "stateMutability": "nonpayable",
      "type": "function"
    },
    {
      "inputs": [
        {
          "internalType": "address",
          "name": "",
          "type": "address"
        },
        {
          "internalType": "address",
          "name": "",
          "type": "address"
        }
      ],
      "name": "isApprovedForAll",
      "outputs": [
        {
          "internalType": "bool",
          "name": "",
          "type": "bool"
        }
      ],
      "stateMutability": "view",
      "type": "function"
    },
    {
      "inputs": [
        {
          "internalType": "address",
          "name": "_to",
          "type": "address"
        }
      ],
      "name": "mint",
      "outputs": [
        {
          "internalType": "uint256",
          "name": "",
          "type": "uint256"
        }
      ],
      "stateMutability": "nonpayable",
      "type": "function"
    },
    {
      "inputs": [],
      "name": "name",
      "outputs": [
        {
          "internalType": "string",
          "name": "",
          "type": "string"
        }
      ],
      "stateMutability": "view",
      "type": "function"
    },
    {
      "inputs": [
        {
          "internalType": "uint256",
          "name": "id",
          "type": "uint256"
        }
      ],
      "name": "ownerOf",
      "outputs": [
        {
          "internalType": "address",
          "name": "owner",
          "type": "address"
        }
      ],
      "stateMutability": "view",
      "type": "function"
    },
    {
      "inputs": [],
      "name": "proxiableUUID",
      "outputs": [
        {
          "internalType": "bytes32",
          "name": "",
          "type": "bytes32"
        }
      ],
      "stateMutability": "view",
      "type": "function"
    },
    {
      "inputs": [
        {
          "internalType": "address",
          "name": "from",
          "type": "address"
        },
        {
          "internalType": "address",
          "name": "to",
          "type": "address"
        },
        {
          "internalType": "uint256",
          "name": "id",
          "type": "uint256"
        }
      ],
      "name": "safeTransferFrom",
      "outputs": [],
      "stateMutability": "nonpayable",
      "type": "function"
    },
    {
      "inputs": [
        {
          "internalType": "address",
          "name": "from",
          "type": "address"
        },
        {
          "internalType": "address",
          "name": "to",
          "type": "address"
        },
        {
          "internalType": "uint256",
          "name": "id",
          "type": "uint256"
        },
        {
          "internalType": "bytes",
          "name": "data",
          "type": "bytes"
        }
      ],
      "name": "safeTransferFrom",
      "outputs": [],
      "stateMutability": "nonpayable",
      "type": "function"
    },
    {
      "inputs": [
        {
          "internalType": "address",
          "name": "operator",
          "type": "address"
        },
        {
          "internalType": "bool",
          "name": "approved",
          "type": "bool"
        }
      ],
      "name": "setApprovalForAll",
      "outputs": [],
      "stateMutability": "nonpayable",
      "type": "function"
    },
    {
      "inputs": [
        {
          "internalType": "bytes4",
          "name": "interfaceId",
          "type": "bytes4"
        }
      ],
      "name": "supportsInterface",
      "outputs": [
        {
          "internalType": "bool",
          "name": "",
          "type": "bool"
        }
      ],
      "stateMutability": "view",
      "type": "function"
    },
    {
      "inputs": [],
      "name": "symbol",
      "outputs": [
        {
          "internalType": "string",
          "name": "",
          "type": "string"
        }
      ],
      "stateMutability": "view",
      "type": "function"
    },
    {
      "inputs": [
        {
          "internalType": "uint256",
          "name": "tokenId",
          "type": "uint256"
        }
      ],
      "name": "tokenURI",
      "outputs": [
        {
          "internalType": "string",
          "name": "",
          "type": "string"
        }
      ],
      "stateMutability": "view",
      "type": "function"
    },
    {
      "inputs": [],
      "name": "totalSupply",
      "outputs": [
        {
          "internalType": "uint256",
          "name": "",
          "type": "uint256"
        }
      ],
      "stateMutability": "view",
      "type": "function"
    },
    {
      "inputs": [
        {
          "internalType": "address",
          "name": "from",
          "type": "address"
        },
        {
          "internalType": "address",
          "name": "to",
          "type": "address"
        },
        {
          "internalType": "uint256",
          "name": "id",
          "type": "uint256"
        }
      ],
      "name": "transferFrom",
      "outputs": [],
      "stateMutability": "nonpayable",
      "type": "function"
    },
    {
      "inputs": [
        {
          "internalType": "address",
          "name": "newImplementation",
          "type": "address"
        }
      ],
      "name": "upgradeTo",
      "outputs": [],
      "stateMutability": "nonpayable",
      "type": "function"
    },
    {
      "inputs": [
        {
          "internalType": "address",
          "name": "newImplementation",
          "type": "address"
        },
        {
          "internalType": "bytes",
          "name": "data",
          "type": "bytes"
        }
      ],
      "name": "upgradeToAndCall",
      "outputs": [],
      "stateMutability": "payable",
      "type": "function"
    },
    {
      "inputs": [],
      "name": "version",
      "outputs": [
        {
          "internalType": "uint256",
          "name": "",
          "type": "uint256"
        }
      ],
      "stateMutability": "pure",
      "type": "function"
    }
  ],
  "bytecode": {
    "object": "0x60c060405260006007553060805234801561001957600080fd5b50604051611c05380380611c05833981016040819052610038916100a3565b6001600160a01b0381166100925760405162461bcd60e51b815260206004820152601a60248201527f456e67696e6520616464726573732063616e6e6f742062652030000000000000604482015260640160405180910390fd5b6001600160a01b031660a0526100d3565b6000602082840312156100b557600080fd5b81516001600160a01b03811681146100cc57600080fd5b9392505050565b60805160a051611ae36101226000396000818161028701528181610c160152610e680152600081816107b1015281816107f101528181610a3901528181610a790152610b0c0152611ae36000f3fe60806040526004361061012a5760003560e01c80634f1ef286116100ab57806370a082311161006f57806370a082311461034557806395d89b4114610365578063a22cb4651461037a578063b88d4fde1461039a578063c87b56dd146103ba578063e985e9c5146103da57600080fd5b80634f1ef286146102c957806352d1902d146102dc57806354fd4d50146102f15780636352211e146103055780636a6278421461032557600080fd5b806323b872dd116100f257806323b872dd146102155780633659cfe61461023557806342842e0e146102555780634785e8d4146102755780634cd88b76146102a957600080fd5b806301ffc9a71461012f57806306fdde0314610164578063081812fc14610186578063095ea7b3146101d457806318160ddd146101f6575b600080fd5b34801561013b57600080fd5b5061014f61014a36600461152f565b610415565b60405190151581526020015b60405180910390f35b34801561017057600080fd5b50610179610467565b60405161015b9190611578565b34801561019257600080fd5b506101bc6101a13660046115ab565b6004602052600090815260409020546001600160a01b031681565b6040516001600160a01b03909116815260200161015b565b3480156101e057600080fd5b506101f46101ef3660046115db565b6104f9565b005b34801561020257600080fd5b506007545b60405190815260200161015b565b34801561022157600080fd5b506101f4610230366004611605565b6105e0565b34801561024157600080fd5b506101f4610250366004611641565b6107a7565b34801561026157600080fd5b506101f4610270366004611605565b610886565b34801561028157600080fd5b506101bc7f000000000000000000000000000000000000000000000000000000000000000081565b3480156102b557600080fd5b506101f46102c43660046116a5565b61097b565b6101f46102d7366004611727565b610a2f565b3480156102e857600080fd5b50610207610aff565b3480156102fd57600080fd5b506001610207565b34801561031157600080fd5b506101bc6103203660046115ab565b610bb2565b34801561033157600080fd5b50610207610340366004611641565b610c09565b34801561035157600080fd5b50610207610360366004611641565b610c82565b34801561037157600080fd5b50610179610ce5565b34801561038657600080fd5b506101f46103953660046117e9565b610cf4565b3480156103a657600080fd5b506101f46103b5366004611825565b610d60565b3480156103c657600080fd5b506101796103d53660046115ab565b610e3e565b3480156103e657600080fd5b5061014f6103f5366004611894565b600560209081526000928352604080842090915290825290205460ff1681565b60006301ffc9a760e01b6001600160e01b03198316148061044657506380ac58cd60e01b6001600160e01b03198316145b806104615750635b5e139f60e01b6001600160e01b03198316145b92915050565b606060008054610476906118c7565b80601f01602080910402602001604051908101604052809291908181526020018280546104a2906118c7565b80156104ef5780601f106104c4576101008083540402835291602001916104ef565b820191906000526020600020905b8154815290600101906020018083116104d257829003601f168201915b5050505050905090565b6000818152600260205260409020546001600160a01b03163381148061054257506001600160a01b038116600090815260056020908152604080832033845290915290205460ff165b6105845760405162461bcd60e51b815260206004820152600e60248201526d1393d517d055551213d49256915160921b60448201526064015b60405180910390fd5b60008281526004602052604080822080546001600160a01b0319166001600160a01b0387811691821790925591518593918516917f8c5be1e5ebec7d5bd14f71427d1e84f3dd0314c0f7b2291e5b200ac8c7c3b92591a4505050565b6000818152600260205260409020546001600160a01b038481169116146106365760405162461bcd60e51b815260206004820152600a60248201526957524f4e475f46524f4d60b01b604482015260640161057b565b6001600160a01b0382166106805760405162461bcd60e51b81526020600482015260116024820152701253959053125117d49150d25412515395607a1b604482015260640161057b565b336001600160a01b03841614806106ba57506001600160a01b038316600090815260056020908152604080832033845290915290205460ff165b806106db57506000818152600460205260409020546001600160a01b031633145b6107185760405162461bcd60e51b815260206004820152600e60248201526d1393d517d055551213d49256915160921b604482015260640161057b565b6001600160a01b0380841660008181526003602090815260408083208054600019019055938616808352848320805460010190558583526002825284832080546001600160a01b03199081168317909155600490925284832080549092169091559251849392917fddf252ad1be2c89b69c2b068fc378daa952ba7f163c4a11628f55a4df523b3ef91a4505050565b6001600160a01b037f00000000000000000000000000000000000000000000000000000000000000001630036107ef5760405162461bcd60e51b815260040161057b90611901565b7f00000000000000000000000000000000000000000000000000000000000000006001600160a01b0316610838600080516020611a67833981519152546001600160a01b031690565b6001600160a01b03161461085e5760405162461bcd60e51b815260040161057b9061194d565b61086781610e5d565b6040805160008082526020820190925261088391839190610ec3565b50565b6108918383836105e0565b6001600160a01b0382163b1561097657604051630a85bd0160e11b8082523360048301526001600160a01b03858116602484015260448301849052608060648401526000608484015290919084169063150b7a029060a4016020604051808303816000875af1158015610908573d6000803e3d6000fd5b505050506040513d601f19601f8201168201806040525081019061092c9190611999565b6001600160e01b031916146109765760405162461bcd60e51b815260206004820152601060248201526f155394d0519157d49150d2541251539560821b604482015260640161057b565b505050565b600654610100900460ff161580801561099b5750600654600160ff909116105b6109e75760405162461bcd60e51b815260206004820152601c60248201527f436f6e747261637420616c726561647920696e697469616c697a656400000000604482015260640161057b565b6006805460ff191660011790558015610a0a576006805461ff0019166101001790555b610a168585858561102e565b8015610a28576006805461ff00191690555b5050505050565b6001600160a01b037f0000000000000000000000000000000000000000000000000000000000000000163003610a775760405162461bcd60e51b815260040161057b90611901565b7f00000000000000000000000000000000000000000000000000000000000000006001600160a01b0316610ac0600080516020611a67833981519152546001600160a01b031690565b6001600160a01b031614610ae65760405162461bcd60e51b815260040161057b9061194d565b610aef82610e5d565b610afb82826001610ec3565b5050565b6000306001600160a01b037f00000000000000000000000000000000000000000000000000000000000000001614610b9f5760405162461bcd60e51b815260206004820152603860248201527f555550535570677261646561626c653a206d757374206e6f742062652063616c60448201527f6c6564207468726f7567682064656c656761746563616c6c0000000000000000606482015260840161057b565b50600080516020611a6783398151915290565b6000818152600260205260409020546001600160a01b031680610c045760405162461bcd60e51b815260206004820152600a6024820152691393d517d3525395115160b21b604482015260640161057b565b919050565b6000336001600160a01b037f00000000000000000000000000000000000000000000000000000000000000001614610c715760405162461bcd60e51b815260206004820152600b60248201526a4f6e6c7920456e67696e6560a81b604482015260640161057b565b610c7a826110ab565b505060075490565b60006001600160a01b038216610cc95760405162461bcd60e51b815260206004820152600c60248201526b5a45524f5f4144445245535360a01b604482015260640161057b565b506001600160a01b031660009081526003602052604090205490565b606060018054610476906118c7565b3360008181526005602090815260408083206001600160a01b03871680855290835292819020805460ff191686151590811790915590519081529192917f17307eab39ab6107e8899845ad3d59bd9653f200f220920489ca2b5937696c31910160405180910390a35050565b610d6b8585856105e0565b6001600160a01b0384163b15610a2857604051630a85bd0160e11b808252906001600160a01b0386169063150b7a0290610db19033908a908990899089906004016119b6565b6020604051808303816000875af1158015610dd0573d6000803e3d6000fd5b505050506040513d601f19601f82011682018060405250810190610df49190611999565b6001600160e01b03191614610a285760405162461bcd60e51b815260206004820152601060248201526f155394d0519157d49150d2541251539560821b604482015260640161057b565b6060610e49826110c8565b505060408051602081019091526000815290565b336001600160a01b037f000000000000000000000000000000000000000000000000000000000000000016146108835760405162461bcd60e51b815260206004820152600b60248201526a4f6e6c7920456e67696e6560a81b604482015260640161057b565b7f4910fdfa16fed3260ed0e7147f7cc6da11a60208b5b9406d12a635614ffd91435460ff1615610ef65761097683611119565b826001600160a01b03166352d1902d6040518163ffffffff1660e01b8152600401602060405180830381865afa925050508015610f50575060408051601f3d908101601f19168201909252610f4d91810190611a0a565b60015b610fb35760405162461bcd60e51b815260206004820152602e60248201527f45524331393637557067726164653a206e657720696d706c656d656e7461746960448201526d6f6e206973206e6f74205555505360901b606482015260840161057b565b600080516020611a6783398151915281146110225760405162461bcd60e51b815260206004820152602960248201527f45524331393637557067726164653a20756e737570706f727465642070726f786044820152681a58589b195555525160ba1b606482015260840161057b565b506109768383836111b5565b600654610100900460ff166110995760405162461bcd60e51b815260206004820152602b60248201527f496e697469616c697a61626c653a20636f6e7472616374206973206e6f74206960448201526a6e697469616c697a696e6760a81b606482015260840161057b565b6110a5848484846111da565b50505050565b610883816007600081546110be90611a23565b91829055506111f3565b6000818152600260205260409020546001600160a01b03166108835760405162461bcd60e51b815260206004820152600a6024820152691393d517d3525395115160b21b604482015260640161057b565b6001600160a01b0381163b6111865760405162461bcd60e51b815260206004820152602d60248201527f455243313936373a206e657720696d706c656d656e746174696f6e206973206e60448201526c1bdd08184818dbdb9d1c9858dd609a1b606482015260840161057b565b600080516020611a6783398151915280546001600160a01b0319166001600160a01b0392909216919091179055565b6111be836112fe565b6000825111806111cb5750805b15610976576110a5838361133e565b6111e660008585611480565b50610a2860018383611480565b6001600160a01b03821661123d5760405162461bcd60e51b81526020600482015260116024820152701253959053125117d49150d25412515395607a1b604482015260640161057b565b6000818152600260205260409020546001600160a01b0316156112935760405162461bcd60e51b815260206004820152600e60248201526d1053149150511657d3525395115160921b604482015260640161057b565b6001600160a01b038216600081815260036020908152604080832080546001019055848352600290915280822080546001600160a01b0319168417905551839291907fddf252ad1be2c89b69c2b068fc378daa952ba7f163c4a11628f55a4df523b3ef908290a45050565b61130781611119565b6040516001600160a01b038216907fbc7cd75a20ee27fd9adebab32041f755214dbc6bffa90cc0225b39da2e5c2d3b90600090a250565b60606113638383604051806060016040528060278152602001611a876027913961136a565b9392505050565b60606001600160a01b0384163b6113d25760405162461bcd60e51b815260206004820152602660248201527f416464726573733a2064656c65676174652063616c6c20746f206e6f6e2d636f6044820152651b9d1c9858dd60d21b606482015260840161057b565b600080856001600160a01b0316856040516113ed9190611a4a565b600060405180830381855af49150503d8060008114611428576040519150601f19603f3d011682016040523d82523d6000602084013e61142d565b606091505b509150915061143d828286611447565b9695505050505050565b60608315611456575081611363565b8251156114665782518084602001fd5b8160405162461bcd60e51b815260040161057b9190611578565b82805461148c906118c7565b90600052602060002090601f0160209004810192826114ae57600085556114f4565b82601f106114c75782800160ff198235161785556114f4565b828001600101855582156114f4579182015b828111156114f45782358255916020019190600101906114d9565b50611500929150611504565b5090565b5b808211156115005760008155600101611505565b6001600160e01b03198116811461088357600080fd5b60006020828403121561154157600080fd5b813561136381611519565b60005b8381101561156757818101518382015260200161154f565b838111156110a55750506000910152565b602081526000825180602084015261159781604085016020870161154c565b601f01601f19169190910160400192915050565b6000602082840312156115bd57600080fd5b5035919050565b80356001600160a01b0381168114610c0457600080fd5b600080604083850312156115ee57600080fd5b6115f7836115c4565b946020939093013593505050565b60008060006060848603121561161a57600080fd5b611623846115c4565b9250611631602085016115c4565b9150604084013590509250925092565b60006020828403121561165357600080fd5b611363826115c4565b60008083601f84011261166e57600080fd5b50813567ffffffffffffffff81111561168657600080fd5b60208301915083602082850101111561169e57600080fd5b9250929050565b600080600080604085870312156116bb57600080fd5b843567ffffffffffffffff808211156116d357600080fd5b6116df8883890161165c565b909650945060208701359150808211156116f857600080fd5b506117058782880161165c565b95989497509550505050565b634e487b7160e01b600052604160045260246000fd5b6000806040838503121561173a57600080fd5b611743836115c4565b9150602083013567ffffffffffffffff8082111561176057600080fd5b818501915085601f83011261177457600080fd5b81358181111561178657611786611711565b604051601f8201601f19908116603f011681019083821181831017156117ae576117ae611711565b816040528281528860208487010111156117c757600080fd5b8260208601602083013760006020848301015280955050505050509250929050565b600080604083850312156117fc57600080fd5b611805836115c4565b91506020830135801515811461181a57600080fd5b809150509250929050565b60008060008060006080868803121561183d57600080fd5b611846866115c4565b9450611854602087016115c4565b935060408601359250606086013567ffffffffffffffff81111561187757600080fd5b6118838882890161165c565b969995985093965092949392505050565b600080604083850312156118a757600080fd5b6118b0836115c4565b91506118be602084016115c4565b90509250929050565b600181811c908216806118db57607f821691505b6020821081036118fb57634e487b7160e01b600052602260045260246000fd5b50919050565b6020808252602c908201527f46756e6374696f6e206d7573742062652063616c6c6564207468726f7567682060408201526b19195b1959d85d1958d85b1b60a21b606082015260800190565b6020808252602c908201527f46756e6374696f6e206d7573742062652063616c6c6564207468726f7567682060408201526b6163746976652070726f787960a01b606082015260800190565b6000602082840312156119ab57600080fd5b815161136381611519565b6001600160a01b038681168252851660208201526040810184905260806060820181905281018290526000828460a0840137600060a0848401015260a0601f19601f85011683010190509695505050505050565b600060208284031215611a1c57600080fd5b5051919050565b600060018201611a4357634e487b7160e01b600052601160045260246000fd5b5060010190565b60008251611a5c81846020870161154c565b919091019291505056fe360894a13ba1a3210667c828492db98dca3e2076cc3735a920a3ca505d382bbc416464726573733a206c6f772d6c6576656c2064656c65676174652063616c6c206661696c6564a26469706673582212206fcfa2734aa54fb0ea3f439369b34e6f1c2dd8e8b2afe7bb63766bbb9d17c14464736f6c634300080e0033",
    "linkReferences": {}
  },
  "methodIdentifiers": {
    "ENGINE()": "4785e8d4",
    "approve(address,uint256)": "095ea7b3",
    "balanceOf(address)": "70a08231",
    "getApproved(uint256)": "081812fc",
    "initialize(string,string)": "4cd88b76",
    "isApprovedForAll(address,address)": "e985e9c5",
    "mint(address)": "6a627842",
    "name()": "06fdde03",
    "ownerOf(uint256)": "6352211e",
    "proxiableUUID()": "52d1902d",
    "safeTransferFrom(address,address,uint256)": "42842e0e",
    "safeTransferFrom(address,address,uint256,bytes)": "b88d4fde",
    "setApprovalForAll(address,bool)": "a22cb465",
    "supportsInterface(bytes4)": "01ffc9a7",
    "symbol()": "95d89b41",
    "tokenURI(uint256)": "c87b56dd",
    "totalSupply()": "18160ddd",
    "transferFrom(address,address,uint256)": "23b872dd",
    "upgradeTo(address)": "3659cfe6",
    "upgradeToAndCall(address,bytes)": "4f1ef286",
    "version()": "54fd4d50"
  },
  "id": 17
}