{
  "abi": [
    {
      "inputs": [
        {
          "internalType": "address",
          "name": "owner",
          "type": "address"
        }
      ],
      "stateMutability": "nonpayable",
      "type": "constructor"
    },
    {
      "anonymous": false,
      "inputs": [
        {
          "indexed": true,
          "internalType": "uint256",
          "name": "profileId",
          "type": "uint256"
        },
        {
          "indexed": true,
          "internalType": "address",
          "name": "to",
          "type": "address"
        },
        {
          "indexed": true,
          "internalType": "address",
          "name": "currency",
          "type": "address"
        },
        {
          "indexed": false,
          "internalType": "uint256",
          "name": "amount",
          "type": "uint256"
        }
      ],
      "name": "Claim",
      "type": "event"
    },
    {
      "anonymous": false,
      "inputs": [
        {
          "indexed": true,
          "internalType": "uint256",
          "name": "profileId",
          "type": "uint256"
        },
        {
          "indexed": true,
          "internalType": "address",
          "name": "currency",
          "type": "address"
        },
        {
          "indexed": true,
          "internalType": "uint256",
          "name": "amount",
          "type": "uint256"
        }
      ],
      "name": "Deposit",
      "type": "event"
    },
    {
      "anonymous": false,
      "inputs": [
        {
          "indexed": true,
          "internalType": "address",
          "name": "owner",
          "type": "address"
        }
      ],
      "name": "Initialize",
      "type": "event"
    },
    {
      "anonymous": false,
      "inputs": [
        {
          "indexed": true,
          "internalType": "address",
          "name": "user",
          "type": "address"
        },
        {
          "indexed": true,
          "internalType": "address",
          "name": "newOwner",
          "type": "address"
        }
      ],
      "name": "OwnerUpdated",
      "type": "event"
    },
    {
      "anonymous": false,
      "inputs": [
        {
          "indexed": true,
          "internalType": "address",
          "name": "preSigner",
          "type": "address"
        },
        {
          "indexed": true,
          "internalType": "address",
          "name": "newSigner",
          "type": "address"
        }
      ],
      "name": "SetSigner",
      "type": "event"
    },
    {
      "inputs": [],
      "name": "DOMAIN_SEPARATOR",
      "outputs": [
        {
          "internalType": "bytes32",
          "name": "",
          "type": "bytes32"
        }
      ],
      "stateMutability": "view",
      "type": "function"
    },
    {
      "inputs": [
        {
          "internalType": "uint256",
          "name": "profileId",
          "type": "uint256"
        },
        {
          "internalType": "address",
          "name": "currency",
          "type": "address"
        }
      ],
      "name": "balanceOf",
      "outputs": [
        {
          "internalType": "uint256",
          "name": "",
          "type": "uint256"
        }
      ],
      "stateMutability": "view",
      "type": "function"
    },
    {
      "inputs": [
        {
          "internalType": "uint256",
          "name": "profileId",
          "type": "uint256"
        },
        {
          "internalType": "address",
          "name": "to",
          "type": "address"
        },
        {
          "internalType": "address",
          "name": "currency",
          "type": "address"
        },
        {
          "internalType": "uint256",
          "name": "amount",
          "type": "uint256"
        },
        {
          "components": [
            {
              "internalType": "uint8",
              "name": "v",
              "type": "uint8"
            },
            {
              "internalType": "bytes32",
              "name": "r",
              "type": "bytes32"
            },
            {
              "internalType": "bytes32",
              "name": "s",
              "type": "bytes32"
            },
            {
              "internalType": "uint256",
              "name": "deadline",
              "type": "uint256"
            }
          ],
          "internalType": "struct DataTypes.EIP712Signature",
          "name": "sig",
          "type": "tuple"
        }
      ],
      "name": "claim",
      "outputs": [],
      "stateMutability": "nonpayable",
      "type": "function"
    },
    {
      "inputs": [
        {
          "internalType": "uint256",
          "name": "profileId",
          "type": "uint256"
        },
        {
          "internalType": "address",
          "name": "currency",
          "type": "address"
        },
        {
          "internalType": "uint256",
          "name": "amount",
          "type": "uint256"
        }
      ],
      "name": "deposit",
      "outputs": [],
      "stateMutability": "nonpayable",
      "type": "function"
    },
    {
      "inputs": [],
      "name": "getSigner",
      "outputs": [
        {
          "internalType": "address",
          "name": "",
          "type": "address"
        }
      ],
      "stateMutability": "view",
      "type": "function"
    },
    {
      "inputs": [
        {
          "internalType": "address",
          "name": "",
          "type": "address"
        }
      ],
      "name": "nonces",
      "outputs": [
        {
          "internalType": "int256",
          "name": "",
          "type": "int256"
        }
      ],
      "stateMutability": "view",
      "type": "function"
    },
    {
      "inputs": [],
      "name": "owner",
      "outputs": [
        {
          "internalType": "address",
          "name": "",
          "type": "address"
        }
      ],
      "stateMutability": "view",
      "type": "function"
    },
    {
      "inputs": [
        {
          "internalType": "address",
          "name": "newOwner",
          "type": "address"
        }
      ],
      "name": "setOwner",
      "outputs": [],
      "stateMutability": "nonpayable",
      "type": "function"
    },
    {
      "inputs": [
        {
          "internalType": "address",
          "name": "signer",
          "type": "address"
        }
      ],
      "name": "setSigner",
      "outputs": [],
      "stateMutability": "nonpayable",
      "type": "function"
    }
  ],
  "bytecode": {
    "object": "0x608060405234801561001057600080fd5b5060405161107e38038061107e83398101604081905261002f91610144565b600280546001600160a01b0319166001600160a01b03831617905561005e816100aa602090811b61078c17901c565b61007061013e60201b61081c1760201c565b6040516001600160a01b038216907f36b1453565f45af7b509b59d5e2eac8f1948ea9e3e193db6663b4101afb6382c90600090a250610174565b6001600160a01b0381166100f35760405162461bcd60e51b815260206004820152600c60248201526b5a45524f5f4144445245535360a01b604482015260640160405180910390fd5b600080546001600160a01b0319166001600160a01b03831690811782556040519091907f8292fce18fa69edf4db7b94ea2e58241df0ae57f97e0a6c9b29067028bf92d76908290a350565b60018055565b60006020828403121561015657600080fd5b81516001600160a01b038116811461016d57600080fd5b9392505050565b610efb806101836000396000f3fe608060405234801561001057600080fd5b50600436106100935760003560e01c80637ac3c02f116100665780637ac3c02f146101115780637ecebe00146101365780638da5cb5b14610156578063b17143aa14610169578063bc157ac11461017c57600080fd5b806313af4035146100985780633644e515146100ad5780633656eec2146100c85780636c19e783146100fe575b600080fd5b6100ab6100a6366004610ca8565b61018f565b005b6100b5610228565b6040519081526020015b60405180910390f35b6100b56100d6366004610cc3565b60009182526004602090815260408084206001600160a01b0393909316845291905290205490565b6100ab61010c366004610ca8565b6102dc565b6002546001600160a01b03165b6040516001600160a01b0390911681526020016100bf565b6100b5610144366004610ca8565b60036020526000908152604090205481565b60005461011e906001600160a01b031681565b6100ab610177366004610cef565b6103c3565b6100ab61018a366004610d53565b6105f9565b6000546001600160a01b031633146101dd5760405162461bcd60e51b815260206004820152600c60248201526b15539055551213d49256915160a21b60448201526064015b60405180910390fd5b600080546001600160a01b0319166001600160a01b0383169081178255604051909133917f8292fce18fa69edf4db7b94ea2e58241df0ae57f97e0a6c9b29067028bf92d769190a350565b60007f8b73c3c69bb8fe3d512ecc4cf759cc79239f7b179b0ffacaa9a75d522b39400f61027260408051808201909152600a81526910de58995c95985d5b1d60b21b602082015290565b80516020918201206040805192830193909352918101919091527fc89efdaa54c0f20c7adf612882df0950f5a951637e0307cdcb4c672f298b8bc660608201524660808201523060a082015260c00160405160208183030381529060405280519060200120905090565b6000546001600160a01b031633146103255760405162461bcd60e51b815260206004820152600c60248201526b15539055551213d49256915160a21b60448201526064016101d4565b6001600160a01b0381166103715760405162461bcd60e51b81526020600482015260136024820152723d32b9379030b2323932b9b99039b4b3b732b960691b60448201526064016101d4565b600280546001600160a01b038381166001600160a01b0319831681179093556040519116919082907f3271c8694494a7cc76cd185c743e9ee6b515a043ea98c0db7f5ca112f694add490600090a35050565b6002600154036104155760405162461bcd60e51b815260206004820152601f60248201527f5265656e7472616e637947756172643a207265656e7472616e742063616c6c0060448201526064016101d4565b60026001556001600160a01b038416600090815260036020526040812080546104eb926104d9927f801ca9084e1d0f0b5a95c3fa087fa4b5ed9728cf3b6cda39197a1e885846668d928a928a928a928a9290919061047283610d9e565b909155506040805160208101979097528601949094526001600160a01b0392831660608681019190915292909116608085015260a084015260c083019190915284013560e08201526101000160405160208183030381529060405280519060200120610822565b6002546001600160a01b031683610869565b60008581526004602090815260408083206001600160a01b03871684529091529020548211156105545760405162461bcd60e51b8152602060048201526014602482015273494e53554646494349454e545f42414c414e434560601b60448201526064016101d4565b60008581526004602090815260408083206001600160a01b038716845290915281208054849290610586908490610dbd565b909155506105a090506001600160a01b0384168584610894565b826001600160a01b0316846001600160a01b0316867fa27580a77a01c86ee8598d930ae5f9a0ec6f146c6e0e9e9f50b95bacb3378718856040516105e691815260200190565b60405180910390a4505060018055505050565b60026001540361064b5760405162461bcd60e51b815260206004820152601f60248201527f5265656e7472616e637947756172643a207265656e7472616e742063616c6c0060448201526064016101d4565b60026001556040516370a0823160e01b815233600482015281906001600160a01b038416906370a0823190602401602060405180830381865afa158015610696573d6000803e3d6000fd5b505050506040513d601f19601f820116820180604052508101906106ba9190610dd4565b10156106ff5760405162461bcd60e51b8152602060048201526014602482015273494e53554646494349454e545f42414c414e434560601b60448201526064016101d4565b6107146001600160a01b0383163330846108f7565b60008381526004602090815260408083206001600160a01b038616845290915281208054839290610746908490610ded565b909155505060405181906001600160a01b0384169085907feaa18152488ce5959073c9c79c88ca90b3d96c00de1f118cfaad664c3dab06b990600090a450506001805550565b6001600160a01b0381166107d15760405162461bcd60e51b815260206004820152600c60248201526b5a45524f5f4144445245535360a01b60448201526064016101d4565b600080546001600160a01b0319166001600160a01b03831690811782556040519091907f8292fce18fa69edf4db7b94ea2e58241df0ae57f97e0a6c9b29067028bf92d76908290a350565b60018055565b600061082c610228565b60405161190160f01b6020820152602281019190915260428101839052606201604051602081830303815290604052805190602001209050919050565b61088f838361087b6020850185610e05565b846020013585604001358660600135610935565b505050565b6040516001600160a01b03831660248201526044810182905261088f90849063a9059cbb60e01b906064015b60408051601f198184030181529190526020810180516001600160e01b03166001600160e01b031990931692909217909152610a37565b6040516001600160a01b038085166024830152831660448201526064810182905261092f9085906323b872dd60e01b906084016108c0565b50505050565b428110156109795760405162461bcd60e51b8152602060048201526011602482015270111150511312539157d15610d151511151607a1b60448201526064016101d4565b6040805160008082526020820180845289905260ff871692820192909252606081018590526080810184905260019060a0016020604051602081039080840390855afa1580156109cd573d6000803e3d6000fd5b505050602060405103519050856001600160a01b0316816001600160a01b031614610a2e5760405162461bcd60e51b8152602060048201526011602482015270494e56414c49445f5349474e415455524560781b60448201526064016101d4565b50505050505050565b6000610a8c826040518060400160405280602081526020017f5361666545524332303a206c6f772d6c6576656c2063616c6c206661696c6564815250856001600160a01b0316610b099092919063ffffffff16565b80519091501561088f5780806020019051810190610aaa9190610e28565b61088f5760405162461bcd60e51b815260206004820152602a60248201527f5361666545524332303a204552433230206f7065726174696f6e20646964206e6044820152691bdd081cdd58d8d9595960b21b60648201526084016101d4565b6060610b188484600085610b22565b90505b9392505050565b606082471015610b835760405162461bcd60e51b815260206004820152602660248201527f416464726573733a20696e73756666696369656e742062616c616e636520666f6044820152651c8818d85b1b60d21b60648201526084016101d4565b6001600160a01b0385163b610bda5760405162461bcd60e51b815260206004820152601d60248201527f416464726573733a2063616c6c20746f206e6f6e2d636f6e747261637400000060448201526064016101d4565b600080866001600160a01b03168587604051610bf69190610e76565b60006040518083038185875af1925050503d8060008114610c33576040519150601f19603f3d011682016040523d82523d6000602084013e610c38565b606091505b5091509150610c48828286610c53565b979650505050505050565b60608315610c62575081610b1b565b825115610c725782518084602001fd5b8160405162461bcd60e51b81526004016101d49190610e92565b80356001600160a01b0381168114610ca357600080fd5b919050565b600060208284031215610cba57600080fd5b610b1b82610c8c565b60008060408385031215610cd657600080fd5b82359150610ce660208401610c8c565b90509250929050565b6000806000806000858703610100811215610d0957600080fd5b86359550610d1960208801610c8c565b9450610d2760408801610c8c565b9350606087013592506080607f1982011215610d4257600080fd5b506080860190509295509295909350565b600080600060608486031215610d6857600080fd5b83359250610d7860208501610c8c565b9150604084013590509250925092565b634e487b7160e01b600052601160045260246000fd5b60006001600160ff1b018201610db657610db6610d88565b5060010190565b600082821015610dcf57610dcf610d88565b500390565b600060208284031215610de657600080fd5b5051919050565b60008219821115610e0057610e00610d88565b500190565b600060208284031215610e1757600080fd5b813560ff81168114610b1b57600080fd5b600060208284031215610e3a57600080fd5b81518015158114610b1b57600080fd5b60005b83811015610e65578181015183820152602001610e4d565b8381111561092f5750506000910152565b60008251610e88818460208701610e4a565b9190910192915050565b6020815260008251806020840152610eb1816040850160208701610e4a565b601f01601f1916919091016040019291505056fea264697066735822122001eeec423ae12d76ad3b1fe703a374328750acce5d013026d8318c569b431a5a64736f6c634300080e0033",
    "linkReferences": {}
  },
  "methodIdentifiers": {
    "DOMAIN_SEPARATOR()": "3644e515",
    "balanceOf(uint256,address)": "3656eec2",
    "claim(uint256,address,address,uint256,(uint8,bytes32,bytes32,uint256))": "b17143aa",
    "deposit(uint256,address,uint256)": "bc157ac1",
    "getSigner()": "7ac3c02f",
    "nonces(address)": "7ecebe00",
    "owner()": "8da5cb5b",
    "setOwner(address)": "13af4035",
    "setSigner(address)": "6c19e783"
  },
  "id": 89
}