{
  "abi": [
    {
      "inputs": [
        {
          "internalType": "address",
          "name": "treasury",
          "type": "address"
        }
      ],
      "stateMutability": "nonpayable",
      "type": "constructor"
    },
    {
      "anonymous": false,
      "inputs": [
        {
          "indexed": true,
          "internalType": "address",
          "name": "namespace",
          "type": "address"
        },
        {
          "indexed": true,
          "internalType": "uint256",
          "name": "profileId",
          "type": "uint256"
        },
        {
          "indexed": true,
          "internalType": "uint256",
          "name": "amount",
          "type": "uint256"
        },
        {
          "indexed": false,
          "internalType": "address",
          "name": "recipient",
          "type": "address"
        },
        {
          "indexed": false,
          "internalType": "address",
          "name": "currency",
          "type": "address"
        },
        {
          "indexed": false,
          "internalType": "bool",
          "name": "nftRequired",
          "type": "bool"
        },
        {
          "indexed": false,
          "internalType": "address",
          "name": "nftAddress",
          "type": "address"
        }
      ],
      "name": "PaidSubscribeMwSet",
      "type": "event"
    },
    {
      "inputs": [],
      "name": "TREASURY",
      "outputs": [
        {
          "internalType": "address",
          "name": "",
          "type": "address"
        }
      ],
      "stateMutability": "view",
      "type": "function"
    },
    {
      "inputs": [
        {
          "internalType": "uint256",
          "name": "",
          "type": "uint256"
        },
        {
          "internalType": "address",
          "name": "",
          "type": "address"
        },
        {
          "internalType": "address",
          "name": "",
          "type": "address"
        },
        {
          "internalType": "bytes",
          "name": "",
          "type": "bytes"
        }
      ],
      "name": "postProcess",
      "outputs": [],
      "stateMutability": "nonpayable",
      "type": "function"
    },
    {
      "inputs": [
        {
          "internalType": "uint256",
          "name": "profileId",
          "type": "uint256"
        },
        {
          "internalType": "address",
          "name": "subscriber",
          "type": "address"
        },
        {
          "internalType": "address",
          "name": "",
          "type": "address"
        },
        {
          "internalType": "bytes",
          "name": "",
          "type": "bytes"
        }
      ],
      "name": "preProcess",
      "outputs": [],
      "stateMutability": "nonpayable",
      "type": "function"
    },
    {
      "inputs": [
        {
          "internalType": "uint256",
          "name": "profileId",
          "type": "uint256"
        },
        {
          "internalType": "bytes",
          "name": "data",
          "type": "bytes"
        }
      ],
      "name": "setSubscribeMwData",
      "outputs": [
        {
          "internalType": "bytes",
          "name": "",
          "type": "bytes"
        }
      ],
      "stateMutability": "nonpayable",
      "type": "function"
    }
  ],
  "bytecode": {
    "object": "0x60a060405234801561001057600080fd5b50604051610e25380380610e2583398101604081905261002f9161009c565b806001600160a01b03811661008a5760405162461bcd60e51b815260206004820152601560248201527f5a45524f5f54524541535552595f414444524553530000000000000000000000604482015260640160405180910390fd5b6001600160a01b0316608052506100cc565b6000602082840312156100ae57600080fd5b81516001600160a01b03811681146100c557600080fd5b9392505050565b608051610d2a6100fb60003960008181607f015281816105de01528181610655015261073e0152610d2a6000f3fe608060405234801561001057600080fd5b506004361061004c5760003560e01c80631fd4be9d146100515780632d2c55651461007a57806353458602146100b957806395d4e4e6146100ce575b600080fd5b61006461005f366004610a5f565b6100e3565b6040516100719190610b03565b60405180910390f35b6100a17f000000000000000000000000000000000000000000000000000000000000000081565b6040516001600160a01b039091168152602001610071565b6100cc6100c7366004610b2e565b61040c565b005b6100cc6100dc366004610b2e565b5050505050565b60606000808080806100f787890189610baf565b94509450945094509450846000036101475760405162461bcd60e51b815260206004820152600e60248201526d1253959053125117d05353d5539560921b60448201526064015b60405180910390fd5b6001600160a01b03841661018f5760405162461bcd60e51b815260206004820152600f60248201526e494e56414c49445f4144445245535360881b604482015260640161013e565b610198836105bc565b6101db5760405162461bcd60e51b815260206004820152601460248201527310d55494915390d657d393d517d0531313d5d15160621b604482015260640161013e565b84600080336001600160a01b03166001600160a01b0316815260200190815260200160002060008b81526020019081526020016000206000018190555083600080336001600160a01b03166001600160a01b0316815260200190815260200160002060008b815260200190815260200160002060010160006101000a8154816001600160a01b0302191690836001600160a01b0316021790555082600080336001600160a01b03166001600160a01b0316815260200190815260200160002060008b815260200190815260200160002060020160006101000a8154816001600160a01b0302191690836001600160a01b0316021790555081600080336001600160a01b03166001600160a01b0316815260200190815260200160002060008b815260200190815260200160002060020160146101000a81548160ff02191690831515021790555080600080336001600160a01b03166001600160a01b0316815260200190815260200160002060008b815260200190815260200160002060030160006101000a8154816001600160a01b0302191690836001600160a01b031602179055508489336001600160a01b03167f7cfc0099aa67fabe4ff1c60e29b82c0ee1afbaef247574f652e360a1ef16c607878787876040516103e694939291906001600160a01b03948516815292841660208401529015156040830152909116606082015260800190565b60405180910390a4505060408051600081526020810190915293505050505b9392505050565b336000908152602081815260408083208884529091528120600281015490546001600160a01b0390911691612710610442610651565b61044c9084610c2d565b6104569190610c4c565b905060006104648284610c6e565b336000908152602081815260408083208d8452909152902060020154909150600160a01b900460ff161561055857336000908152602081815260408083208c84529091528082206003015490516370a0823160e01b81526001600160a01b038b81166004830152909116906370a0823190602401602060405180830381865afa1580156104f5573d6000803e3d6000fd5b505050506040513d601f19601f820116820180604052508101906105199190610c85565b116105585760405162461bcd60e51b815260206004820152600f60248201526e1393d7d49154555254915117d39195608a1b604482015260640161013e565b336000908152602081815260408083208c845290915290206001015461058d906001600160a01b03868116918b9116846106da565b81156105b1576105b18861059f61073a565b6001600160a01b0387169190856106da565b505050505050505050565b604051635a195d1960e01b81526001600160a01b0382811660048301526000917f000000000000000000000000000000000000000000000000000000000000000090911690635a195d1990602401602060405180830381865afa158015610627573d6000803e3d6000fd5b505050506040513d601f19601f8201168201806040525081019061064b9190610c9e565b92915050565b60007f00000000000000000000000000000000000000000000000000000000000000006001600160a01b03166329070c6d6040518163ffffffff1660e01b8152600401602060405180830381865afa1580156106b1573d6000803e3d6000fd5b505050506040513d601f19601f820116820180604052508101906106d59190610c85565b905090565b604080516001600160a01b0385811660248301528416604482015260648082018490528251808303909101815260849091019091526020810180516001600160e01b03166323b872dd60e01b1790526107349085906107be565b50505050565b60007f00000000000000000000000000000000000000000000000000000000000000006001600160a01b031663e00246046040518163ffffffff1660e01b8152600401602060405180830381865afa15801561079a573d6000803e3d6000fd5b505050506040513d601f19601f820116820180604052508101906106d59190610cbb565b6000610813826040518060400160405280602081526020017f5361666545524332303a206c6f772d6c6576656c2063616c6c206661696c6564815250856001600160a01b03166108959092919063ffffffff16565b80519091501561089057808060200190518101906108319190610c9e565b6108905760405162461bcd60e51b815260206004820152602a60248201527f5361666545524332303a204552433230206f7065726174696f6e20646964206e6044820152691bdd081cdd58d8d9595960b21b606482015260840161013e565b505050565b60606108a484846000856108ac565b949350505050565b60608247101561090d5760405162461bcd60e51b815260206004820152602660248201527f416464726573733a20696e73756666696369656e742062616c616e636520666f6044820152651c8818d85b1b60d21b606482015260840161013e565b6001600160a01b0385163b6109645760405162461bcd60e51b815260206004820152601d60248201527f416464726573733a2063616c6c20746f206e6f6e2d636f6e7472616374000000604482015260640161013e565b600080866001600160a01b031685876040516109809190610cd8565b60006040518083038185875af1925050503d80600081146109bd576040519150601f19603f3d011682016040523d82523d6000602084013e6109c2565b606091505b50915091506109d28282866109dd565b979650505050505050565b606083156109ec575081610405565b8251156109fc5782518084602001fd5b8160405162461bcd60e51b815260040161013e9190610b03565b60008083601f840112610a2857600080fd5b50813567ffffffffffffffff811115610a4057600080fd5b602083019150836020828501011115610a5857600080fd5b9250929050565b600080600060408486031215610a7457600080fd5b83359250602084013567ffffffffffffffff811115610a9257600080fd5b610a9e86828701610a16565b9497909650939450505050565b60005b83811015610ac6578181015183820152602001610aae565b838111156107345750506000910152565b60008151808452610aef816020860160208601610aab565b601f01601f19169290920160200192915050565b6020815260006104056020830184610ad7565b6001600160a01b0381168114610b2b57600080fd5b50565b600080600080600060808688031215610b4657600080fd5b853594506020860135610b5881610b16565b93506040860135610b6881610b16565b9250606086013567ffffffffffffffff811115610b8457600080fd5b610b9088828901610a16565b969995985093965092949392505050565b8015158114610b2b57600080fd5b600080600080600060a08688031215610bc757600080fd5b853594506020860135610bd981610b16565b93506040860135610be981610b16565b92506060860135610bf981610ba1565b91506080860135610c0981610b16565b809150509295509295909350565b634e487b7160e01b600052601160045260246000fd5b6000816000190483118215151615610c4757610c47610c17565b500290565b600082610c6957634e487b7160e01b600052601260045260246000fd5b500490565b600082821015610c8057610c80610c17565b500390565b600060208284031215610c9757600080fd5b5051919050565b600060208284031215610cb057600080fd5b815161040581610ba1565b600060208284031215610ccd57600080fd5b815161040581610b16565b60008251610cea818460208701610aab565b919091019291505056fea2646970667358221220c5de16272b0a10b04a23d34c6c8863b16c93c1c8edd05fd88a3d2d074ba30da964736f6c634300080e0033",
    "linkReferences": {}
  },
  "methodIdentifiers": {
    "TREASURY()": "2d2c5565",
    "postProcess(uint256,address,address,bytes)": "95d4e4e6",
    "preProcess(uint256,address,address,bytes)": "53458602",
    "setSubscribeMwData(uint256,bytes)": "1fd4be9d"
  },
  "id": 117
}