{
  "abi": [
    {
      "anonymous": false,
      "inputs": [
        {
          "indexed": true,
          "internalType": "address",
          "name": "namespace",
          "type": "address"
        },
        {
          "indexed": true,
          "internalType": "uint256",
          "name": "profileId",
          "type": "uint256"
        },
        {
          "indexed": true,
          "internalType": "uint256",
          "name": "essenceId",
          "type": "uint256"
        },
        {
          "indexed": false,
          "internalType": "address",
          "name": "signer",
          "type": "address"
        }
      ],
      "name": "SignatureEssenceMwSignerSet",
      "type": "event"
    },
    {
      "inputs": [],
      "name": "DOMAIN_SEPARATOR",
      "outputs": [
        {
          "internalType": "bytes32",
          "name": "",
          "type": "bytes32"
        }
      ],
      "stateMutability": "view",
      "type": "function"
    },
    {
      "inputs": [
        {
          "internalType": "uint256",
          "name": "profileId",
          "type": "uint256"
        },
        {
          "internalType": "address",
          "name": "collector",
          "type": "address"
        },
        {
          "internalType": "uint256",
          "name": "essenceId",
          "type": "uint256"
        }
      ],
      "name": "getNonce",
      "outputs": [
        {
          "internalType": "uint256",
          "name": "",
          "type": "uint256"
        }
      ],
      "stateMutability": "view",
      "type": "function"
    },
    {
      "inputs": [
        {
          "internalType": "uint256",
          "name": "",
          "type": "uint256"
        },
        {
          "internalType": "uint256",
          "name": "",
          "type": "uint256"
        },
        {
          "internalType": "address",
          "name": "",
          "type": "address"
        },
        {
          "internalType": "address",
          "name": "",
          "type": "address"
        },
        {
          "internalType": "bytes",
          "name": "",
          "type": "bytes"
        }
      ],
      "name": "postProcess",
      "outputs": [],
      "stateMutability": "nonpayable",
      "type": "function"
    },
    {
      "inputs": [
        {
          "internalType": "uint256",
          "name": "profileId",
          "type": "uint256"
        },
        {
          "internalType": "uint256",
          "name": "essenceId",
          "type": "uint256"
        },
        {
          "internalType": "address",
          "name": "collector",
          "type": "address"
        },
        {
          "internalType": "address",
          "name": "",
          "type": "address"
        },
        {
          "internalType": "bytes",
          "name": "data",
          "type": "bytes"
        }
      ],
      "name": "preProcess",
      "outputs": [],
      "stateMutability": "nonpayable",
      "type": "function"
    },
    {
      "inputs": [
        {
          "internalType": "uint256",
          "name": "profileId",
          "type": "uint256"
        },
        {
          "internalType": "uint256",
          "name": "essenceId",
          "type": "uint256"
        },
        {
          "internalType": "bytes",
          "name": "data",
          "type": "bytes"
        }
      ],
      "name": "setEssenceMwData",
      "outputs": [
        {
          "internalType": "bytes",
          "name": "",
          "type": "bytes"
        }
      ],
      "stateMutability": "nonpayable",
      "type": "function"
    }
  ],
  "bytecode": {
    "object": "0x608060405234801561001057600080fd5b506107f8806100206000396000f3fe608060405234801561001057600080fd5b50600436106100575760003560e01c80632eae92621461005c5780633644e5151461007457806348d7b1561461008f578063a58d4f0e146100d9578063f2dd081b146100f9575b600080fd5b61007261006a3660046105da565b505050505050565b005b61007c61010c565b6040519081526020015b60405180910390f35b61007c61009d366004610656565b33600090815260208181526040808320868452825280832084845282528083206001600160a01b03861684526001019091529020549392505050565b6100ec6100e736600461068e565b6101d3565b60405161008691906106e1565b6100726101073660046105da565b61026c565b60007f8b73c3c69bb8fe3d512ecc4cf759cc79239f7b179b0ffacaa9a75d522b39400f61016960408051808201909152601c81527f5369676e61747572655065726d697373696f6e457373656e63654d7700000000602082015290565b80516020918201206040805192830193909352918101919091527fc89efdaa54c0f20c7adf612882df0950f5a951637e0307cdcb4c672f298b8bc660608201524660808201523060a082015260c00160405160208183030381529060405280519060200120905090565b60606101e182840184610736565b336000818152602081815260408083208a8452825280832089845282529182902080546001600160a01b0319166001600160a01b03959095169485179055905192835286928892917f8ebf31a8aad09a43521b2d5138075dbb3375b9c9f6fd1490dc9ba04fda25f3e6910160405180910390a450506040805160008152602081019091529392505050565b600080808061027d8587018761075a565b93509350935093506103af61037c7f15500b483a847da1e9350dc93b03875c33398fb79ee0caf2b0c46f2efe6845548a600080336001600160a01b03166001600160a01b0316815260200190815260200160002060008f815260200190815260200160002060008e815260200190815260200160002060010160008d6001600160a01b03166001600160a01b03168152602001908152602001600020600081548092919061032a9061079b565b919050558560405160200161036194939291909384526001600160a01b039290921660208401526040830152606082015260800190565b604051602081830303815290604052805190602001206103bb565b336000908152602081815260408083208f845282528083208e84529091529020546001600160a01b031686868686610402565b50505050505050505050565b60006103c561010c565b60405161190160f01b6020820152602281019190915260428101839052606201604051602081830303815290604052805190602001209050919050565b4281101561044b5760405162461bcd60e51b8152602060048201526011602482015270111150511312539157d15610d151511151607a1b60448201526064015b60405180910390fd5b7f7fffffffffffffffffffffffffffffff5d576e7357a4501ddfe92f46681b20a08211156104bb5760405162461bcd60e51b815260206004820152601960248201527f494e56414c49445f5349474e41545552455f535f5641554c45000000000000006044820152606401610442565b6040805160008082526020820180845289905260ff871692820192909252606081018590526080810184905260019060a0016020604051602081039080840390855afa15801561050f573d6000803e3d6000fd5b505050602060405103519050856001600160a01b0316816001600160a01b0316146105705760405162461bcd60e51b8152602060048201526011602482015270494e56414c49445f5349474e415455524560781b6044820152606401610442565b50505050505050565b6001600160a01b038116811461058e57600080fd5b50565b60008083601f8401126105a357600080fd5b50813567ffffffffffffffff8111156105bb57600080fd5b6020830191508360208285010111156105d357600080fd5b9250929050565b60008060008060008060a087890312156105f357600080fd5b8635955060208701359450604087013561060c81610579565b9350606087013561061c81610579565b9250608087013567ffffffffffffffff81111561063857600080fd5b61064489828a01610591565b979a9699509497509295939492505050565b60008060006060848603121561066b57600080fd5b83359250602084013561067d81610579565b929592945050506040919091013590565b600080600080606085870312156106a457600080fd5b8435935060208501359250604085013567ffffffffffffffff8111156106c957600080fd5b6106d587828801610591565b95989497509550505050565b600060208083528351808285015260005b8181101561070e578581018301518582016040015282016106f2565b81811115610720576000604083870101525b50601f01601f1916929092016040019392505050565b60006020828403121561074857600080fd5b813561075381610579565b9392505050565b6000806000806080858703121561077057600080fd5b843560ff8116811461078157600080fd5b966020860135965060408601359560600135945092505050565b6000600182016107bb57634e487b7160e01b600052601160045260246000fd5b506001019056fea2646970667358221220c0edaa6431853b4a8776643e5e097b73c5a057d4aa951e25e5fa2741f529c04264736f6c634300080e0033",
    "linkReferences": {}
  },
  "methodIdentifiers": {
    "DOMAIN_SEPARATOR()": "3644e515",
    "getNonce(uint256,address,uint256)": "48d7b156",
    "postProcess(uint256,uint256,address,address,bytes)": "2eae9262",
    "preProcess(uint256,uint256,address,address,bytes)": "f2dd081b",
    "setEssenceMwData(uint256,uint256,bytes)": "a58d4f0e"
  },
  "id": 115
}